{
  "contractName": "GroovyDudesToken",
  "abi": [
    {
      "inputs": [],
      "stateMutability": "nonpayable",
      "type": "constructor"
    },
    {
      "anonymous": false,
      "inputs": [
        {
          "indexed": true,
          "internalType": "address",
          "name": "owner",
          "type": "address"
        },
        {
          "indexed": true,
          "internalType": "address",
          "name": "approved",
          "type": "address"
        },
        {
          "indexed": true,
          "internalType": "uint256",
          "name": "tokenId",
          "type": "uint256"
        }
      ],
      "name": "Approval",
      "type": "event"
    },
    {
      "anonymous": false,
      "inputs": [
        {
          "indexed": true,
          "internalType": "address",
          "name": "owner",
          "type": "address"
        },
        {
          "indexed": true,
          "internalType": "address",
          "name": "operator",
          "type": "address"
        },
        {
          "indexed": false,
          "internalType": "bool",
          "name": "approved",
          "type": "bool"
        }
      ],
      "name": "ApprovalForAll",
      "type": "event"
    },
    {
      "anonymous": false,
      "inputs": [
        {
          "indexed": false,
          "internalType": "uint256",
          "name": "payoutAmount",
          "type": "uint256"
        }
      ],
      "name": "OwnerPayout",
      "type": "event"
    },
    {
      "anonymous": false,
      "inputs": [
        {
          "indexed": true,
          "internalType": "address",
          "name": "previousOwner",
          "type": "address"
        },
        {
          "indexed": true,
          "internalType": "address",
          "name": "newOwner",
          "type": "address"
        }
      ],
      "name": "OwnershipTransferred",
      "type": "event"
    },
    {
      "anonymous": false,
      "inputs": [
        {
          "indexed": true,
          "internalType": "address",
          "name": "from",
          "type": "address"
        },
        {
          "indexed": true,
          "internalType": "address",
          "name": "to",
          "type": "address"
        },
        {
          "indexed": true,
          "internalType": "uint256",
          "name": "tokenId",
          "type": "uint256"
        }
      ],
      "name": "Transfer",
      "type": "event"
    },
    {
      "inputs": [
        {
          "internalType": "address",
          "name": "to",
          "type": "address"
        },
        {
          "internalType": "uint256",
          "name": "tokenId",
          "type": "uint256"
        }
      ],
      "name": "approve",
      "outputs": [],
      "stateMutability": "nonpayable",
      "type": "function"
    },
    {
      "inputs": [
        {
          "internalType": "address",
          "name": "owner",
          "type": "address"
        }
      ],
      "name": "balanceOf",
      "outputs": [
        {
          "internalType": "uint256",
          "name": "",
          "type": "uint256"
        }
      ],
      "stateMutability": "view",
      "type": "function",
      "constant": true
    },
    {
      "inputs": [
        {
          "internalType": "uint256",
          "name": "tokenId",
          "type": "uint256"
        }
      ],
      "name": "getApproved",
      "outputs": [
        {
          "internalType": "address",
          "name": "",
          "type": "address"
        }
      ],
      "stateMutability": "view",
      "type": "function",
      "constant": true
    },
    {
      "inputs": [
        {
          "internalType": "address",
          "name": "owner",
          "type": "address"
        },
        {
          "internalType": "address",
          "name": "operator",
          "type": "address"
        }
      ],
      "name": "isApprovedForAll",
      "outputs": [
        {
          "internalType": "bool",
          "name": "",
          "type": "bool"
        }
      ],
      "stateMutability": "view",
      "type": "function",
      "constant": true
    },
    {
      "inputs": [],
      "name": "name",
      "outputs": [
        {
          "internalType": "string",
          "name": "",
          "type": "string"
        }
      ],
      "stateMutability": "view",
      "type": "function",
      "constant": true
    },
    {
      "inputs": [],
      "name": "owner",
      "outputs": [
        {
          "internalType": "address",
          "name": "",
          "type": "address"
        }
      ],
      "stateMutability": "view",
      "type": "function",
      "constant": true
    },
    {
      "inputs": [
        {
          "internalType": "uint256",
          "name": "tokenId",
          "type": "uint256"
        }
      ],
      "name": "ownerOf",
      "outputs": [
        {
          "internalType": "address",
          "name": "",
          "type": "address"
        }
      ],
      "stateMutability": "view",
      "type": "function",
      "constant": true
    },
    {
      "inputs": [],
      "name": "renounceOwnership",
      "outputs": [],
      "stateMutability": "nonpayable",
      "type": "function"
    },
    {
      "inputs": [
        {
          "internalType": "address",
          "name": "from",
          "type": "address"
        },
        {
          "internalType": "address",
          "name": "to",
          "type": "address"
        },
        {
          "internalType": "uint256",
          "name": "tokenId",
          "type": "uint256"
        }
      ],
      "name": "safeTransferFrom",
      "outputs": [],
      "stateMutability": "nonpayable",
      "type": "function"
    },
    {
      "inputs": [
        {
          "internalType": "address",
          "name": "from",
          "type": "address"
        },
        {
          "internalType": "address",
          "name": "to",
          "type": "address"
        },
        {
          "internalType": "uint256",
          "name": "tokenId",
          "type": "uint256"
        },
        {
          "internalType": "bytes",
          "name": "_data",
          "type": "bytes"
        }
      ],
      "name": "safeTransferFrom",
      "outputs": [],
      "stateMutability": "nonpayable",
      "type": "function"
    },
    {
      "inputs": [
        {
          "internalType": "address",
          "name": "operator",
          "type": "address"
        },
        {
          "internalType": "bool",
          "name": "approved",
          "type": "bool"
        }
      ],
      "name": "setApprovalForAll",
      "outputs": [],
      "stateMutability": "nonpayable",
      "type": "function"
    },
    {
      "inputs": [],
      "name": "symbol",
      "outputs": [
        {
          "internalType": "string",
          "name": "",
          "type": "string"
        }
      ],
      "stateMutability": "view",
      "type": "function",
      "constant": true
    },
    {
      "inputs": [
        {
          "internalType": "uint256",
          "name": "index",
          "type": "uint256"
        }
      ],
      "name": "tokenByIndex",
      "outputs": [
        {
          "internalType": "uint256",
          "name": "",
          "type": "uint256"
        }
      ],
      "stateMutability": "view",
      "type": "function",
      "constant": true
    },
    {
      "inputs": [
        {
          "internalType": "address",
          "name": "owner",
          "type": "address"
        },
        {
          "internalType": "uint256",
          "name": "index",
          "type": "uint256"
        }
      ],
      "name": "tokenOfOwnerByIndex",
      "outputs": [
        {
          "internalType": "uint256",
          "name": "",
          "type": "uint256"
        }
      ],
      "stateMutability": "view",
      "type": "function",
      "constant": true
    },
    {
      "inputs": [],
      "name": "totalSupply",
      "outputs": [
        {
          "internalType": "uint256",
          "name": "",
          "type": "uint256"
        }
      ],
      "stateMutability": "view",
      "type": "function",
      "constant": true
    },
    {
      "inputs": [
        {
          "internalType": "address",
          "name": "from",
          "type": "address"
        },
        {
          "internalType": "address",
          "name": "to",
          "type": "address"
        },
        {
          "internalType": "uint256",
          "name": "tokenId",
          "type": "uint256"
        }
      ],
      "name": "transferFrom",
      "outputs": [],
      "stateMutability": "nonpayable",
      "type": "function"
    },
    {
      "inputs": [
        {
          "internalType": "address",
          "name": "newOwner",
          "type": "address"
        }
      ],
      "name": "transferOwnership",
      "outputs": [],
      "stateMutability": "nonpayable",
      "type": "function"
    },
    {
      "inputs": [
        {
          "internalType": "uint256",
          "name": "tokenId",
          "type": "uint256"
        },
        {
          "internalType": "address",
          "name": "recipient",
          "type": "address"
        }
      ],
      "name": "mintByUser",
      "outputs": [
        {
          "internalType": "uint256",
          "name": "",
          "type": "uint256"
        }
      ],
      "stateMutability": "payable",
      "type": "function",
      "payable": true
    },
    {
      "inputs": [],
      "name": "getContractBalance",
      "outputs": [
        {
          "internalType": "uint256",
          "name": "",
          "type": "uint256"
        }
      ],
      "stateMutability": "view",
      "type": "function",
      "constant": true
    },
    {
      "inputs": [],
      "name": "payoutToContractOwner",
      "outputs": [
        {
          "internalType": "uint256",
          "name": "",
          "type": "uint256"
        }
      ],
      "stateMutability": "nonpayable",
      "type": "function"
    },
    {
      "inputs": [
        {
          "internalType": "address",
          "name": "to",
          "type": "address"
        },
        {
          "internalType": "uint256",
          "name": "tokenId",
          "type": "uint256"
        },
        {
          "internalType": "string",
          "name": "uri",
          "type": "string"
        }
      ],
      "name": "safeMint",
      "outputs": [],
      "stateMutability": "nonpayable",
      "type": "function"
    },
    {
      "inputs": [
        {
          "internalType": "uint256",
          "name": "tokenId",
          "type": "uint256"
        }
      ],
      "name": "tokenURI",
      "outputs": [
        {
          "internalType": "string",
          "name": "",
          "type": "string"
        }
      ],
      "stateMutability": "view",
      "type": "function",
      "constant": true
    },
    {
      "inputs": [
        {
          "internalType": "bytes4",
          "name": "interfaceId",
          "type": "bytes4"
        }
      ],
      "name": "supportsInterface",
      "outputs": [
        {
          "internalType": "bool",
          "name": "",
          "type": "bool"
        }
      ],
      "stateMutability": "view",
      "type": "function",
      "constant": true
    }
  ],
  "bytecode": "0x60806040523480156200001157600080fd5b506040518060400160405280601081526020017f47726f6f76794475646573546f6b656e000000000000000000000000000000008152506040518060400160405280600381526020017f4756590000000000000000000000000000000000000000000000000000000000815250816000908051906020019062000096929190620001a6565b508060019080519060200190620000af929190620001a6565b505050620000d2620000c6620000d860201b60201c565b620000e060201b60201c565b620002bb565b600033905090565b6000600b60009054906101000a900473ffffffffffffffffffffffffffffffffffffffff16905081600b60006101000a81548173ffffffffffffffffffffffffffffffffffffffff021916908373ffffffffffffffffffffffffffffffffffffffff1602179055508173ffffffffffffffffffffffffffffffffffffffff168173ffffffffffffffffffffffffffffffffffffffff167f8be0079c531659141344cd1fd0a4f28419497f9722a3daafe3b4186f6b6457e060405160405180910390a35050565b828054620001b49062000285565b90600052602060002090601f016020900481019282620001d8576000855562000224565b82601f10620001f357805160ff191683800117855562000224565b8280016001018555821562000224579182015b828111156200022357825182559160200191906001019062000206565b5b50905062000233919062000237565b5090565b5b808211156200025257600081600090555060010162000238565b5090565b7f4e487b7100000000000000000000000000000000000000000000000000000000600052602260045260246000fd5b600060028204905060018216806200029e57607f821691505b60208210811415620002b557620002b462000256565b5b50919050565b613e4d80620002cb6000396000f3fe6080604052600436106101405760003560e01c80636f9fb98a116100b6578063b229dc891161006f578063b229dc8914610475578063b88d4fde146104a0578063c87b56dd146104c9578063cd279c7c14610506578063e985e9c51461052f578063f2fde38b1461056c57610140565b80636f9fb98a1461037757806370a08231146103a2578063715018a6146103df5780638da5cb5b146103f657806395d89b4114610421578063a22cb4651461044c57610140565b806318160ddd1161010857806318160ddd1461024357806323b872dd1461026e5780632f745c591461029757806342842e0e146102d45780634f6ccce7146102fd5780636352211e1461033a57610140565b806301ffc9a71461014557806306fdde0314610182578063081812fc146101ad578063095ea7b3146101ea578063172ef47b14610213575b600080fd5b34801561015157600080fd5b5061016c6004803603810190610167919061273a565b610595565b6040516101799190612782565b60405180910390f35b34801561018e57600080fd5b506101976105a7565b6040516101a49190612836565b60405180910390f35b3480156101b957600080fd5b506101d460048036038101906101cf919061288e565b610639565b6040516101e191906128fc565b60405180910390f35b3480156101f657600080fd5b50610211600480360381019061020c9190612943565b6106be565b005b61022d60048036038101906102289190612983565b6107d6565b60405161023a91906129d2565b60405180910390f35b34801561024f57600080fd5b5061025861095c565b60405161026591906129d2565b60405180910390f35b34801561027a57600080fd5b50610295600480360381019061029091906129ed565b610969565b005b3480156102a357600080fd5b506102be60048036038101906102b99190612943565b6109c9565b6040516102cb91906129d2565b60405180910390f35b3480156102e057600080fd5b506102fb60048036038101906102f691906129ed565b610a6e565b005b34801561030957600080fd5b50610324600480360381019061031f919061288e565b610a8e565b60405161033191906129d2565b60405180910390f35b34801561034657600080fd5b50610361600480360381019061035c919061288e565b610aff565b60405161036e91906128fc565b60405180910390f35b34801561038357600080fd5b5061038c610bb1565b60405161039991906129d2565b60405180910390f35b3480156103ae57600080fd5b506103c960048036038101906103c49190612a40565b610bb9565b6040516103d691906129d2565b60405180910390f35b3480156103eb57600080fd5b506103f4610c71565b005b34801561040257600080fd5b5061040b610cf9565b60405161041891906128fc565b60405180910390f35b34801561042d57600080fd5b50610436610d23565b6040516104439190612836565b60405180910390f35b34801561045857600080fd5b50610473600480360381019061046e9190612a99565b610db5565b005b34801561048157600080fd5b5061048a610dcb565b60405161049791906129d2565b60405180910390f35b3480156104ac57600080fd5b506104c760048036038101906104c29190612c0e565b610ee4565b005b3480156104d557600080fd5b506104f060048036038101906104eb919061288e565b610f46565b6040516104fd9190612836565b60405180910390f35b34801561051257600080fd5b5061052d60048036038101906105289190612d32565b610f58565b005b34801561053b57600080fd5b5061055660048036038101906105519190612da1565b610fed565b6040516105639190612782565b60405180910390f35b34801561057857600080fd5b50610593600480360381019061058e9190612a40565b611081565b005b60006105a082611179565b9050919050565b6060600080546105b690612e10565b80601f01602080910402602001604051908101604052809291908181526020018280546105e290612e10565b801561062f5780601f106106045761010080835404028352916020019161062f565b820191906000526020600020905b81548152906001019060200180831161061257829003601f168201915b5050505050905090565b6000610644826111f3565b610683576040517f08c379a000000000000000000000000000000000000000000000000000000000815260040161067a90612eb4565b60405180910390fd5b6004600083815260200190815260200160002060009054906101000a900473ffffffffffffffffffffffffffffffffffffffff169050919050565b60006106c982610aff565b90508073ffffffffffffffffffffffffffffffffffffffff168373ffffffffffffffffffffffffffffffffffffffff16141561073a576040517f08c379a000000000000000000000000000000000000000000000000000000000815260040161073190612f46565b60405180910390fd5b8073ffffffffffffffffffffffffffffffffffffffff1661075961125f565b73ffffffffffffffffffffffffffffffffffffffff16148061078857506107878161078261125f565b610fed565b5b6107c7576040517f08c379a00000000000000000000000000000000000000000000000000000000081526004016107be90612fd8565b60405180910390fd5b6107d18383611267565b505050565b60006103e8831061081c576040517f08c379a00000000000000000000000000000000000000000000000000000000081526004016108139061306a565b60405180910390fd5b610825836111f3565b15610865576040517f08c379a000000000000000000000000000000000000000000000000000000000815260040161085c906130d6565b60405180910390fd5b66b1a2bc2ec500003410156108af576040517f08c379a00000000000000000000000000000000000000000000000000000000081526004016108a690613142565b60405180910390fd5b6000604051806060016040528060368152602001613de260369139905060006108d785611320565b905060006040518060400160405280600581526020017f2e6a736f6e0000000000000000000000000000000000000000000000000000008152509050600083838360405160200161092a9392919061319e565b60405160208183030381529060405290506109458688611481565b61094f878261164f565b8694505050505092915050565b6000600880549050905090565b61097a61097461125f565b826116c3565b6109b9576040517f08c379a00000000000000000000000000000000000000000000000000000000081526004016109b090613241565b60405180910390fd5b6109c48383836117a1565b505050565b60006109d483610bb9565b8210610a15576040517f08c379a0000000000000000000000000000000000000000000000000000000008152600401610a0c906132d3565b60405180910390fd5b600660008473ffffffffffffffffffffffffffffffffffffffff1673ffffffffffffffffffffffffffffffffffffffff168152602001908152602001600020600083815260200190815260200160002054905092915050565b610a8983838360405180602001604052806000815250610ee4565b505050565b6000610a9861095c565b8210610ad9576040517f08c379a0000000000000000000000000000000000000000000000000000000008152600401610ad090613365565b60405180910390fd5b60088281548110610aed57610aec613385565b5b90600052602060002001549050919050565b6000806002600084815260200190815260200160002060009054906101000a900473ffffffffffffffffffffffffffffffffffffffff169050600073ffffffffffffffffffffffffffffffffffffffff168173ffffffffffffffffffffffffffffffffffffffff161415610ba8576040517f08c379a0000000000000000000000000000000000000000000000000000000008152600401610b9f90613426565b60405180910390fd5b80915050919050565b600047905090565b60008073ffffffffffffffffffffffffffffffffffffffff168273ffffffffffffffffffffffffffffffffffffffff161415610c2a576040517f08c379a0000000000000000000000000000000000000000000000000000000008152600401610c21906134b8565b60405180910390fd5b600360008373ffffffffffffffffffffffffffffffffffffffff1673ffffffffffffffffffffffffffffffffffffffff168152602001908152602001600020549050919050565b610c7961125f565b73ffffffffffffffffffffffffffffffffffffffff16610c97610cf9565b73ffffffffffffffffffffffffffffffffffffffff1614610ced576040517f08c379a0000000000000000000000000000000000000000000000000000000008152600401610ce490613524565b60405180910390fd5b610cf760006119fd565b565b6000600b60009054906101000a900473ffffffffffffffffffffffffffffffffffffffff16905090565b606060018054610d3290612e10565b80601f0160208091040260200160405190810160405280929190818152602001828054610d5e90612e10565b8015610dab5780601f10610d8057610100808354040283529160200191610dab565b820191906000526020600020905b815481529060010190602001808311610d8e57829003601f168201915b5050505050905090565b610dc7610dc061125f565b8383611ac3565b5050565b6000610dd561125f565b73ffffffffffffffffffffffffffffffffffffffff16610df3610cf9565b73ffffffffffffffffffffffffffffffffffffffff1614610e49576040517f08c379a0000000000000000000000000000000000000000000000000000000008152600401610e4090613524565b60405180910390fd5b60004790506000811115610ea657610e5f610cf9565b73ffffffffffffffffffffffffffffffffffffffff166108fc829081150290604051600060405180830381858888f19350505050158015610ea4573d6000803e3d6000fd5b505b7f662069f1b4b373e85baddc14fe98dbdc9cfbf0f7235d0ea42acc1b65c5b1416b81604051610ed591906129d2565b60405180910390a18091505090565b610ef5610eef61125f565b836116c3565b610f34576040517f08c379a0000000000000000000000000000000000000000000000000000000008152600401610f2b90613241565b60405180910390fd5b610f4084848484611c30565b50505050565b6060610f5182611c8c565b9050919050565b610f6061125f565b73ffffffffffffffffffffffffffffffffffffffff16610f7e610cf9565b73ffffffffffffffffffffffffffffffffffffffff1614610fd4576040517f08c379a0000000000000000000000000000000000000000000000000000000008152600401610fcb90613524565b60405180910390fd5b610fde8383611dde565b610fe8828261164f565b505050565b6000600560008473ffffffffffffffffffffffffffffffffffffffff1673ffffffffffffffffffffffffffffffffffffffff16815260200190815260200160002060008373ffffffffffffffffffffffffffffffffffffffff1673ffffffffffffffffffffffffffffffffffffffff16815260200190815260200160002060009054906101000a900460ff16905092915050565b61108961125f565b73ffffffffffffffffffffffffffffffffffffffff166110a7610cf9565b73ffffffffffffffffffffffffffffffffffffffff16146110fd576040517f08c379a00000000000000000000000000000000000000000000000000000000081526004016110f490613524565b60405180910390fd5b600073ffffffffffffffffffffffffffffffffffffffff168173ffffffffffffffffffffffffffffffffffffffff16141561116d576040517f08c379a0000000000000000000000000000000000000000000000000000000008152600401611164906135b6565b60405180910390fd5b611176816119fd565b50565b60007f780e9d63000000000000000000000000000000000000000000000000000000007bffffffffffffffffffffffffffffffffffffffffffffffffffffffff1916827bffffffffffffffffffffffffffffffffffffffffffffffffffffffff191614806111ec57506111eb82611dfc565b5b9050919050565b60008073ffffffffffffffffffffffffffffffffffffffff166002600084815260200190815260200160002060009054906101000a900473ffffffffffffffffffffffffffffffffffffffff1673ffffffffffffffffffffffffffffffffffffffff1614159050919050565b600033905090565b816004600083815260200190815260200160002060006101000a81548173ffffffffffffffffffffffffffffffffffffffff021916908373ffffffffffffffffffffffffffffffffffffffff160217905550808273ffffffffffffffffffffffffffffffffffffffff166112da83610aff565b73ffffffffffffffffffffffffffffffffffffffff167f8c5be1e5ebec7d5bd14f71427d1e84f3dd0314c0f7b2291e5b200ac8c7c3b92560405160405180910390a45050565b60606000821415611368576040518060400160405280600181526020017f3000000000000000000000000000000000000000000000000000000000000000815250905061147c565b600082905060005b6000821461139a57808061138390613605565b915050600a82611393919061367d565b9150611370565b60008167ffffffffffffffff8111156113b6576113b5612ae3565b5b6040519080825280601f01601f1916602001820160405280156113e85781602001600182028036833780820191505090505b5090505b600085146114755760018261140191906136ae565b9150600a8561141091906136e2565b603061141c9190613713565b60f81b81838151811061143257611431613385565b5b60200101907effffffffffffffffffffffffffffffffffffffffffffffffffffffffffffff1916908160001a905350600a8561146e919061367d565b94506113ec565b8093505050505b919050565b600073ffffffffffffffffffffffffffffffffffffffff168273ffffffffffffffffffffffffffffffffffffffff1614156114f1576040517f08c379a00000000000000000000000000000000000000000000000000000000081526004016114e8906137b5565b60405180910390fd5b6114fa816111f3565b1561153a576040517f08c379a000000000000000000000000000000000000000000000000000000000815260040161153190613821565b60405180910390fd5b61154660008383611ede565b6001600360008473ffffffffffffffffffffffffffffffffffffffff1673ffffffffffffffffffffffffffffffffffffffff16815260200190815260200160002060008282546115969190613713565b92505081905550816002600083815260200190815260200160002060006101000a81548173ffffffffffffffffffffffffffffffffffffffff021916908373ffffffffffffffffffffffffffffffffffffffff160217905550808273ffffffffffffffffffffffffffffffffffffffff16600073ffffffffffffffffffffffffffffffffffffffff167fddf252ad1be2c89b69c2b068fc378daa952ba7f163c4a11628f55a4df523b3ef60405160405180910390a45050565b611658826111f3565b611697576040517f08c379a000000000000000000000000000000000000000000000000000000000815260040161168e906138b3565b60405180910390fd5b80600a600084815260200190815260200160002090805190602001906116be92919061262b565b505050565b60006116ce826111f3565b61170d576040517f08c379a000000000000000000000000000000000000000000000000000000000815260040161170490613945565b60405180910390fd5b600061171883610aff565b90508073ffffffffffffffffffffffffffffffffffffffff168473ffffffffffffffffffffffffffffffffffffffff16148061178757508373ffffffffffffffffffffffffffffffffffffffff1661176f84610639565b73ffffffffffffffffffffffffffffffffffffffff16145b8061179857506117978185610fed565b5b91505092915050565b8273ffffffffffffffffffffffffffffffffffffffff166117c182610aff565b73ffffffffffffffffffffffffffffffffffffffff1614611817576040517f08c379a000000000000000000000000000000000000000000000000000000000815260040161180e906139d7565b60405180910390fd5b600073ffffffffffffffffffffffffffffffffffffffff168273ffffffffffffffffffffffffffffffffffffffff161415611887576040517f08c379a000000000000000000000000000000000000000000000000000000000815260040161187e90613a69565b60405180910390fd5b611892838383611ede565b61189d600082611267565b6001600360008573ffffffffffffffffffffffffffffffffffffffff1673ffffffffffffffffffffffffffffffffffffffff16815260200190815260200160002060008282546118ed91906136ae565b925050819055506001600360008473ffffffffffffffffffffffffffffffffffffffff1673ffffffffffffffffffffffffffffffffffffffff16815260200190815260200160002060008282546119449190613713565b92505081905550816002600083815260200190815260200160002060006101000a81548173ffffffffffffffffffffffffffffffffffffffff021916908373ffffffffffffffffffffffffffffffffffffffff160217905550808273ffffffffffffffffffffffffffffffffffffffff168473ffffffffffffffffffffffffffffffffffffffff167fddf252ad1be2c89b69c2b068fc378daa952ba7f163c4a11628f55a4df523b3ef60405160405180910390a4505050565b6000600b60009054906101000a900473ffffffffffffffffffffffffffffffffffffffff16905081600b60006101000a81548173ffffffffffffffffffffffffffffffffffffffff021916908373ffffffffffffffffffffffffffffffffffffffff1602179055508173ffffffffffffffffffffffffffffffffffffffff168173ffffffffffffffffffffffffffffffffffffffff167f8be0079c531659141344cd1fd0a4f28419497f9722a3daafe3b4186f6b6457e060405160405180910390a35050565b8173ffffffffffffffffffffffffffffffffffffffff168373ffffffffffffffffffffffffffffffffffffffff161415611b32576040517f08c379a0000000000000000000000000000000000000000000000000000000008152600401611b2990613ad5565b60405180910390fd5b80600560008573ffffffffffffffffffffffffffffffffffffffff1673ffffffffffffffffffffffffffffffffffffffff16815260200190815260200160002060008473ffffffffffffffffffffffffffffffffffffffff1673ffffffffffffffffffffffffffffffffffffffff16815260200190815260200160002060006101000a81548160ff0219169083151502179055508173ffffffffffffffffffffffffffffffffffffffff168373ffffffffffffffffffffffffffffffffffffffff167f17307eab39ab6107e8899845ad3d59bd9653f200f220920489ca2b5937696c3183604051611c239190612782565b60405180910390a3505050565b611c3b8484846117a1565b611c4784848484611eee565b611c86576040517f08c379a0000000000000000000000000000000000000000000000000000000008152600401611c7d90613b67565b60405180910390fd5b50505050565b6060611c97826111f3565b611cd6576040517f08c379a0000000000000000000000000000000000000000000000000000000008152600401611ccd90613bf9565b60405180910390fd5b6000600a60008481526020019081526020016000208054611cf690612e10565b80601f0160208091040260200160405190810160405280929190818152602001828054611d2290612e10565b8015611d6f5780601f10611d4457610100808354040283529160200191611d6f565b820191906000526020600020905b815481529060010190602001808311611d5257829003601f168201915b505050505090506000611d80612076565b9050600081511415611d96578192505050611dd9565b600082511115611dcb578082604051602001611db3929190613c19565b60405160208183030381529060405292505050611dd9565b611dd48461208d565b925050505b919050565b611df8828260405180602001604052806000815250612134565b5050565b60007f80ac58cd000000000000000000000000000000000000000000000000000000007bffffffffffffffffffffffffffffffffffffffffffffffffffffffff1916827bffffffffffffffffffffffffffffffffffffffffffffffffffffffff19161480611ec757507f5b5e139f000000000000000000000000000000000000000000000000000000007bffffffffffffffffffffffffffffffffffffffffffffffffffffffff1916827bffffffffffffffffffffffffffffffffffffffffffffffffffffffff1916145b80611ed75750611ed68261218f565b5b9050919050565b611ee98383836121f9565b505050565b6000611f0f8473ffffffffffffffffffffffffffffffffffffffff1661230d565b15612069578373ffffffffffffffffffffffffffffffffffffffff1663150b7a02611f3861125f565b8786866040518563ffffffff1660e01b8152600401611f5a9493929190613c92565b6020604051808303816000875af1925050508015611f9657506040513d601f19601f82011682018060405250810190611f939190613cf3565b60015b612019573d8060008114611fc6576040519150601f19603f3d011682016040523d82523d6000602084013e611fcb565b606091505b50600081511415612011576040517f08c379a000000000000000000000000000000000000000000000000000000000815260040161200890613b67565b60405180910390fd5b805181602001fd5b63150b7a0260e01b7bffffffffffffffffffffffffffffffffffffffffffffffffffffffff1916817bffffffffffffffffffffffffffffffffffffffffffffffffffffffff19161491505061206e565b600190505b949350505050565b606060405180602001604052806000815250905090565b6060612098826111f3565b6120d7576040517f08c379a00000000000000000000000000000000000000000000000000000000081526004016120ce90613d92565b60405180910390fd5b60006120e1612076565b90506000815111612101576040518060200160405280600081525061212c565b8061210b84611320565b60405160200161211c929190613c19565b6040516020818303038152906040525b915050919050565b61213e8383611481565b61214b6000848484611eee565b61218a576040517f08c379a000000000000000000000000000000000000000000000000000000000815260040161218190613b67565b60405180910390fd5b505050565b60007f01ffc9a7000000000000000000000000000000000000000000000000000000007bffffffffffffffffffffffffffffffffffffffffffffffffffffffff1916827bffffffffffffffffffffffffffffffffffffffffffffffffffffffff1916149050919050565b612204838383612320565b600073ffffffffffffffffffffffffffffffffffffffff168373ffffffffffffffffffffffffffffffffffffffff1614156122475761224281612325565b612286565b8173ffffffffffffffffffffffffffffffffffffffff168373ffffffffffffffffffffffffffffffffffffffff161461228557612284838261236e565b5b5b600073ffffffffffffffffffffffffffffffffffffffff168273ffffffffffffffffffffffffffffffffffffffff1614156122c9576122c4816124db565b612308565b8273ffffffffffffffffffffffffffffffffffffffff168273ffffffffffffffffffffffffffffffffffffffff16146123075761230682826125ac565b5b5b505050565b600080823b905060008111915050919050565b505050565b6008805490506009600083815260200190815260200160002081905550600881908060018154018082558091505060019003906000526020600020016000909190919091505550565b6000600161237b84610bb9565b61238591906136ae565b905060006007600084815260200190815260200160002054905081811461246a576000600660008673ffffffffffffffffffffffffffffffffffffffff1673ffffffffffffffffffffffffffffffffffffffff168152602001908152602001600020600084815260200190815260200160002054905080600660008773ffffffffffffffffffffffffffffffffffffffff1673ffffffffffffffffffffffffffffffffffffffff168152602001908152602001600020600084815260200190815260200160002081905550816007600083815260200190815260200160002081905550505b6007600084815260200190815260200160002060009055600660008573ffffffffffffffffffffffffffffffffffffffff1673ffffffffffffffffffffffffffffffffffffffff16815260200190815260200160002060008381526020019081526020016000206000905550505050565b600060016008805490506124ef91906136ae565b905060006009600084815260200190815260200160002054905060006008838154811061251f5761251e613385565b5b90600052602060002001549050806008838154811061254157612540613385565b5b9060005260206000200181905550816009600083815260200190815260200160002081905550600960008581526020019081526020016000206000905560088054806125905761258f613db2565b5b6001900381819060005260206000200160009055905550505050565b60006125b783610bb9565b905081600660008573ffffffffffffffffffffffffffffffffffffffff1673ffffffffffffffffffffffffffffffffffffffff168152602001908152602001600020600083815260200190815260200160002081905550806007600084815260200190815260200160002081905550505050565b82805461263790612e10565b90600052602060002090601f01602090048101928261265957600085556126a0565b82601f1061267257805160ff19168380011785556126a0565b828001600101855582156126a0579182015b8281111561269f578251825591602001919060010190612684565b5b5090506126ad91906126b1565b5090565b5b808211156126ca5760008160009055506001016126b2565b5090565b6000604051905090565b600080fd5b600080fd5b60007fffffffff0000000000000000000000000000000000000000000000000000000082169050919050565b612717816126e2565b811461272257600080fd5b50565b6000813590506127348161270e565b92915050565b6000602082840312156127505761274f6126d8565b5b600061275e84828501612725565b91505092915050565b60008115159050919050565b61277c81612767565b82525050565b60006020820190506127976000830184612773565b92915050565b600081519050919050565b600082825260208201905092915050565b60005b838110156127d75780820151818401526020810190506127bc565b838111156127e6576000848401525b50505050565b6000601f19601f8301169050919050565b60006128088261279d565b61281281856127a8565b93506128228185602086016127b9565b61282b816127ec565b840191505092915050565b6000602082019050818103600083015261285081846127fd565b905092915050565b6000819050919050565b61286b81612858565b811461287657600080fd5b50565b60008135905061288881612862565b92915050565b6000602082840312156128a4576128a36126d8565b5b60006128b284828501612879565b91505092915050565b600073ffffffffffffffffffffffffffffffffffffffff82169050919050565b60006128e6826128bb565b9050919050565b6128f6816128db565b82525050565b600060208201905061291160008301846128ed565b92915050565b612920816128db565b811461292b57600080fd5b50565b60008135905061293d81612917565b92915050565b6000806040838503121561295a576129596126d8565b5b60006129688582860161292e565b925050602061297985828601612879565b9150509250929050565b6000806040838503121561299a576129996126d8565b5b60006129a885828601612879565b92505060206129b98582860161292e565b9150509250929050565b6129cc81612858565b82525050565b60006020820190506129e760008301846129c3565b92915050565b600080600060608486031215612a0657612a056126d8565b5b6000612a148682870161292e565b9350506020612a258682870161292e565b9250506040612a3686828701612879565b9150509250925092565b600060208284031215612a5657612a556126d8565b5b6000612a648482850161292e565b91505092915050565b612a7681612767565b8114612a8157600080fd5b50565b600081359050612a9381612a6d565b92915050565b60008060408385031215612ab057612aaf6126d8565b5b6000612abe8582860161292e565b9250506020612acf85828601612a84565b9150509250929050565b600080fd5b600080fd5b7f4e487b7100000000000000000000000000000000000000000000000000000000600052604160045260246000fd5b612b1b826127ec565b810181811067ffffffffffffffff82111715612b3a57612b39612ae3565b5b80604052505050565b6000612b4d6126ce565b9050612b598282612b12565b919050565b600067ffffffffffffffff821115612b7957612b78612ae3565b5b612b82826127ec565b9050602081019050919050565b82818337600083830152505050565b6000612bb1612bac84612b5e565b612b43565b905082815260208101848484011115612bcd57612bcc612ade565b5b612bd8848285612b8f565b509392505050565b600082601f830112612bf557612bf4612ad9565b5b8135612c05848260208601612b9e565b91505092915050565b60008060008060808587031215612c2857612c276126d8565b5b6000612c368782880161292e565b9450506020612c478782880161292e565b9350506040612c5887828801612879565b925050606085013567ffffffffffffffff811115612c7957612c786126dd565b5b612c8587828801612be0565b91505092959194509250565b600067ffffffffffffffff821115612cac57612cab612ae3565b5b612cb5826127ec565b9050602081019050919050565b6000612cd5612cd084612c91565b612b43565b905082815260208101848484011115612cf157612cf0612ade565b5b612cfc848285612b8f565b509392505050565b600082601f830112612d1957612d18612ad9565b5b8135612d29848260208601612cc2565b91505092915050565b600080600060608486031215612d4b57612d4a6126d8565b5b6000612d598682870161292e565b9350506020612d6a86828701612879565b925050604084013567ffffffffffffffff811115612d8b57612d8a6126dd565b5b612d9786828701612d04565b9150509250925092565b60008060408385031215612db857612db76126d8565b5b6000612dc68582860161292e565b9250506020612dd78582860161292e565b9150509250929050565b7f4e487b7100000000000000000000000000000000000000000000000000000000600052602260045260246000fd5b60006002820490506001821680612e2857607f821691505b60208210811415612e3c57612e3b612de1565b5b50919050565b7f4552433732313a20617070726f76656420717565727920666f72206e6f6e657860008201527f697374656e7420746f6b656e0000000000000000000000000000000000000000602082015250565b6000612e9e602c836127a8565b9150612ea982612e42565b604082019050919050565b60006020820190508181036000830152612ecd81612e91565b9050919050565b7f4552433732313a20617070726f76616c20746f2063757272656e74206f776e6560008201527f7200000000000000000000000000000000000000000000000000000000000000602082015250565b6000612f306021836127a8565b9150612f3b82612ed4565b604082019050919050565b60006020820190508181036000830152612f5f81612f23565b9050919050565b7f4552433732313a20617070726f76652063616c6c6572206973206e6f74206f7760008201527f6e6572206e6f7220617070726f76656420666f7220616c6c0000000000000000602082015250565b6000612fc26038836127a8565b9150612fcd82612f66565b604082019050919050565b60006020820190508181036000830152612ff181612fb5565b9050919050565b7f496e76616c696420746f6b656e2069642e2056616c69642072616e676520697360008201527f203020746f203939392e00000000000000000000000000000000000000000000602082015250565b6000613054602a836127a8565b915061305f82612ff8565b604082019050919050565b6000602082019050818103600083015261308381613047565b9050919050565b7f546f6b656e2068617320616c7265616479206265656e206d696e7465642e0000600082015250565b60006130c0601e836127a8565b91506130cb8261308a565b602082019050919050565b600060208201905081810360008301526130ef816130b3565b9050919050565b7f4d696e696d756d20707269636520697320302e30352045544800000000000000600082015250565b600061312c6019836127a8565b9150613137826130f6565b602082019050919050565b6000602082019050818103600083015261315b8161311f565b9050919050565b600081905092915050565b60006131788261279d565b6131828185613162565b93506131928185602086016127b9565b80840191505092915050565b60006131aa828661316d565b91506131b6828561316d565b91506131c2828461316d565b9150819050949350505050565b7f4552433732313a207472616e736665722063616c6c6572206973206e6f74206f60008201527f776e6572206e6f7220617070726f766564000000000000000000000000000000602082015250565b600061322b6031836127a8565b9150613236826131cf565b604082019050919050565b6000602082019050818103600083015261325a8161321e565b9050919050565b7f455243373231456e756d657261626c653a206f776e657220696e646578206f7560008201527f74206f6620626f756e6473000000000000000000000000000000000000000000602082015250565b60006132bd602b836127a8565b91506132c882613261565b604082019050919050565b600060208201905081810360008301526132ec816132b0565b9050919050565b7f455243373231456e756d657261626c653a20676c6f62616c20696e646578206f60008201527f7574206f6620626f756e64730000000000000000000000000000000000000000602082015250565b600061334f602c836127a8565b915061335a826132f3565b604082019050919050565b6000602082019050818103600083015261337e81613342565b9050919050565b7f4e487b7100000000000000000000000000000000000000000000000000000000600052603260045260246000fd5b7f4552433732313a206f776e657220717565727920666f72206e6f6e657869737460008201527f656e7420746f6b656e0000000000000000000000000000000000000000000000602082015250565b60006134106029836127a8565b915061341b826133b4565b604082019050919050565b6000602082019050818103600083015261343f81613403565b9050919050565b7f4552433732313a2062616c616e636520717565727920666f7220746865207a6560008201527f726f206164647265737300000000000000000000000000000000000000000000602082015250565b60006134a2602a836127a8565b91506134ad82613446565b604082019050919050565b600060208201905081810360008301526134d181613495565b9050919050565b7f4f776e61626c653a2063616c6c6572206973206e6f7420746865206f776e6572600082015250565b600061350e6020836127a8565b9150613519826134d8565b602082019050919050565b6000602082019050818103600083015261353d81613501565b9050919050565b7f4f776e61626c653a206e6577206f776e657220697320746865207a65726f206160008201527f6464726573730000000000000000000000000000000000000000000000000000602082015250565b60006135a06026836127a8565b91506135ab82613544565b604082019050919050565b600060208201905081810360008301526135cf81613593565b9050919050565b7f4e487b7100000000000000000000000000000000000000000000000000000000600052601160045260246000fd5b600061361082612858565b91507fffffffffffffffffffffffffffffffffffffffffffffffffffffffffffffffff821415613643576136426135d6565b5b600182019050919050565b7f4e487b7100000000000000000000000000000000000000000000000000000000600052601260045260246000fd5b600061368882612858565b915061369383612858565b9250826136a3576136a261364e565b5b828204905092915050565b60006136b982612858565b91506136c483612858565b9250828210156136d7576136d66135d6565b5b828203905092915050565b60006136ed82612858565b91506136f883612858565b9250826137085761370761364e565b5b828206905092915050565b600061371e82612858565b915061372983612858565b9250827fffffffffffffffffffffffffffffffffffffffffffffffffffffffffffffffff0382111561375e5761375d6135d6565b5b828201905092915050565b7f4552433732313a206d696e7420746f20746865207a65726f2061646472657373600082015250565b600061379f6020836127a8565b91506137aa82613769565b602082019050919050565b600060208201905081810360008301526137ce81613792565b9050919050565b7f4552433732313a20746f6b656e20616c7265616479206d696e74656400000000600082015250565b600061380b601c836127a8565b9150613816826137d5565b602082019050919050565b6000602082019050818103600083015261383a816137fe565b9050919050565b7f45524337323155524953746f726167653a2055524920736574206f66206e6f6e60008201527f6578697374656e7420746f6b656e000000000000000000000000000000000000602082015250565b600061389d602e836127a8565b91506138a882613841565b604082019050919050565b600060208201905081810360008301526138cc81613890565b9050919050565b7f4552433732313a206f70657261746f7220717565727920666f72206e6f6e657860008201527f697374656e7420746f6b656e0000000000000000000000000000000000000000602082015250565b600061392f602c836127a8565b915061393a826138d3565b604082019050919050565b6000602082019050818103600083015261395e81613922565b9050919050565b7f4552433732313a207472616e73666572206f6620746f6b656e2074686174206960008201527f73206e6f74206f776e0000000000000000000000000000000000000000000000602082015250565b60006139c16029836127a8565b91506139cc82613965565b604082019050919050565b600060208201905081810360008301526139f0816139b4565b9050919050565b7f4552433732313a207472616e7366657220746f20746865207a65726f2061646460008201527f7265737300000000000000000000000000000000000000000000000000000000602082015250565b6000613a536024836127a8565b9150613a5e826139f7565b604082019050919050565b60006020820190508181036000830152613a8281613a46565b9050919050565b7f4552433732313a20617070726f766520746f2063616c6c657200000000000000600082015250565b6000613abf6019836127a8565b9150613aca82613a89565b602082019050919050565b60006020820190508181036000830152613aee81613ab2565b9050919050565b7f4552433732313a207472616e7366657220746f206e6f6e20455243373231526560008201527f63656976657220696d706c656d656e7465720000000000000000000000000000602082015250565b6000613b516032836127a8565b9150613b5c82613af5565b604082019050919050565b60006020820190508181036000830152613b8081613b44565b9050919050565b7f45524337323155524953746f726167653a2055524920717565727920666f722060008201527f6e6f6e6578697374656e7420746f6b656e000000000000000000000000000000602082015250565b6000613be36031836127a8565b9150613bee82613b87565b604082019050919050565b60006020820190508181036000830152613c1281613bd6565b9050919050565b6000613c25828561316d565b9150613c31828461316d565b91508190509392505050565b600081519050919050565b600082825260208201905092915050565b6000613c6482613c3d565b613c6e8185613c48565b9350613c7e8185602086016127b9565b613c87816127ec565b840191505092915050565b6000608082019050613ca760008301876128ed565b613cb460208301866128ed565b613cc160408301856129c3565b8181036060830152613cd38184613c59565b905095945050505050565b600081519050613ced8161270e565b92915050565b600060208284031215613d0957613d086126d8565b5b6000613d1784828501613cde565b91505092915050565b7f4552433732314d657461646174613a2055524920717565727920666f72206e6f60008201527f6e6578697374656e7420746f6b656e0000000000000000000000000000000000602082015250565b6000613d7c602f836127a8565b9150613d8782613d20565b604082019050919050565b60006020820190508181036000830152613dab81613d6f565b9050919050565b7f4e487b7100000000000000000000000000000000000000000000000000000000600052603160045260246000fdfe697066733a2f2f516d6171734b464d666f66585654786a4e7139706f417646476f6461586245337a4e71586b6750415970504e6f562fa26469706673582212206af358c6b5aca216585aaabc1227c081f8195575d3c63d4744d6fb86c6f9848664736f6c634300080b0033",
  "immutableReferences": {},
  "source": "// SPDX-License-Identifier: MIT\npragma solidity ^0.8.2;\n\nimport \"@openzeppelin/contracts/token/ERC721/ERC721.sol\";\nimport \"@openzeppelin/contracts/token/ERC721/extensions/ERC721Enumerable.sol\";\nimport \"@openzeppelin/contracts/token/ERC721/extensions/ERC721URIStorage.sol\";\nimport \"@openzeppelin/contracts/access/Ownable.sol\";\nimport \"@openzeppelin/contracts/utils/Strings.sol\";\n\ncontract GroovyDudesToken is ERC721, ERC721Enumerable, ERC721URIStorage, Ownable {\n  event OwnerPayout(uint256 payoutAmount);\n\n  constructor() ERC721(\"GroovyDudesToken\", \"GVY\") {}\n\n  function mintByUser(\n    uint256 tokenId,\n    address recipient\n  ) public payable returns (uint256) {\n    require(tokenId < 1000, 'Invalid token id. Valid range is 0 to 999.');\n    require(!_exists(tokenId), 'Token has already been minted.');\n    require (msg.value >= 0.05 ether, 'Minimum price is 0.05 ETH');\n\n    string memory urlPrefix = 'ipfs://QmaqsKFMfofXVTxjNq9poAvFGodaXbE3zNqXkgPAYpPNoV/';\n    string memory idString = Strings.toString(tokenId);\n    string memory urlSuffix = '.json';\n    string memory metadataURI = string(abi.encodePacked(urlPrefix, idString, urlSuffix));\n    _mint(recipient, tokenId);\n    _setTokenURI(tokenId, metadataURI);\n\n    return tokenId;\n  }\n\n  function getContractBalance() public view returns(uint256) {\n    return address(this).balance;\n  }\n\n  function payoutToContractOwner() public onlyOwner returns(uint256) {\n    uint256 balance = address(this).balance;\n    if (balance > 0) {\n      payable(owner()).transfer(balance);\n    }\n    emit OwnerPayout(balance);\n    return balance;\n  }\n\n  // Code below generated by OpenZeppelin wizard\n  // https://docs.openzeppelin.com/contracts/4.x/wizard\n\n  function safeMint(address to, uint256 tokenId, string memory uri)\n    public\n    onlyOwner\n  {\n    _safeMint(to, tokenId);\n    _setTokenURI(tokenId, uri);\n  }\n\n  // The following functions are overrides required by Solidity.\n\n  function _beforeTokenTransfer(address from, address to, uint256 tokenId)\n    internal\n    override(ERC721, ERC721Enumerable)\n  {\n    super._beforeTokenTransfer(from, to, tokenId);\n  }\n\n  function _burn(uint256 tokenId) internal override(ERC721, ERC721URIStorage) {\n    super._burn(tokenId);\n  }\n\n  function tokenURI(uint256 tokenId)\n    public\n    view\n    override(ERC721, ERC721URIStorage)\n    returns (string memory)\n  {\n    return super.tokenURI(tokenId);\n  }\n\n  function supportsInterface(bytes4 interfaceId)\n    public\n    view\n    override(ERC721, ERC721Enumerable)\n    returns (bool)\n  {\n    return super.supportsInterface(interfaceId);\n  }\n\n}\n",
  "sourcePath": "/Users/richardthompson/Documents/dev/nft-minter/contracts/GroovyDudesToken.sol",
  "compiler": {
    "name": "solc",
    "version": "0.8.11+commit.d7f03943.Emscripten.clang"
  },
  "schemaVersion": "3.4.4",
  "updatedAt": "2022-02-12T14:58:39.379Z",
  "networkType": "ethereum",
  "devdoc": {
    "kind": "dev",
    "methods": {
      "approve(address,uint256)": {
        "details": "See {IERC721-approve}."
      },
      "balanceOf(address)": {
        "details": "See {IERC721-balanceOf}."
      },
      "getApproved(uint256)": {
        "details": "See {IERC721-getApproved}."
      },
      "isApprovedForAll(address,address)": {
        "details": "See {IERC721-isApprovedForAll}."
      },
      "name()": {
        "details": "See {IERC721Metadata-name}."
      },
      "owner()": {
        "details": "Returns the address of the current owner."
      },
      "ownerOf(uint256)": {
        "details": "See {IERC721-ownerOf}."
      },
      "renounceOwnership()": {
        "details": "Leaves the contract without owner. It will not be possible to call `onlyOwner` functions anymore. Can only be called by the current owner. NOTE: Renouncing ownership will leave the contract without an owner, thereby removing any functionality that is only available to the owner."
      },
      "safeTransferFrom(address,address,uint256)": {
        "details": "See {IERC721-safeTransferFrom}."
      },
      "safeTransferFrom(address,address,uint256,bytes)": {
        "details": "See {IERC721-safeTransferFrom}."
      },
      "setApprovalForAll(address,bool)": {
        "details": "See {IERC721-setApprovalForAll}."
      },
      "symbol()": {
        "details": "See {IERC721Metadata-symbol}."
      },
      "tokenByIndex(uint256)": {
        "details": "See {IERC721Enumerable-tokenByIndex}."
      },
      "tokenOfOwnerByIndex(address,uint256)": {
        "details": "See {IERC721Enumerable-tokenOfOwnerByIndex}."
      },
      "totalSupply()": {
        "details": "See {IERC721Enumerable-totalSupply}."
      },
      "transferFrom(address,address,uint256)": {
        "details": "See {IERC721-transferFrom}."
      },
      "transferOwnership(address)": {
        "details": "Transfers ownership of the contract to a new account (`newOwner`). Can only be called by the current owner."
      }
    },
    "version": 1
  },
  "userdoc": {
    "kind": "user",
    "methods": {},
    "version": 1
  }
}