{
  "contractName": "GroovyDudesToken",
  "abi": [
    {
      "inputs": [],
      "stateMutability": "nonpayable",
      "type": "constructor"
    },
    {
      "anonymous": false,
      "inputs": [
        {
          "indexed": true,
          "internalType": "address",
          "name": "owner",
          "type": "address"
        },
        {
          "indexed": true,
          "internalType": "address",
          "name": "approved",
          "type": "address"
        },
        {
          "indexed": true,
          "internalType": "uint256",
          "name": "tokenId",
          "type": "uint256"
        }
      ],
      "name": "Approval",
      "type": "event"
    },
    {
      "anonymous": false,
      "inputs": [
        {
          "indexed": true,
          "internalType": "address",
          "name": "owner",
          "type": "address"
        },
        {
          "indexed": true,
          "internalType": "address",
          "name": "operator",
          "type": "address"
        },
        {
          "indexed": false,
          "internalType": "bool",
          "name": "approved",
          "type": "bool"
        }
      ],
      "name": "ApprovalForAll",
      "type": "event"
    },
    {
      "anonymous": false,
      "inputs": [
        {
          "indexed": true,
          "internalType": "address",
          "name": "previousOwner",
          "type": "address"
        },
        {
          "indexed": true,
          "internalType": "address",
          "name": "newOwner",
          "type": "address"
        }
      ],
      "name": "OwnershipTransferred",
      "type": "event"
    },
    {
      "anonymous": false,
      "inputs": [
        {
          "indexed": true,
          "internalType": "address",
          "name": "from",
          "type": "address"
        },
        {
          "indexed": true,
          "internalType": "address",
          "name": "to",
          "type": "address"
        },
        {
          "indexed": true,
          "internalType": "uint256",
          "name": "tokenId",
          "type": "uint256"
        }
      ],
      "name": "Transfer",
      "type": "event"
    },
    {
      "inputs": [
        {
          "internalType": "address",
          "name": "to",
          "type": "address"
        },
        {
          "internalType": "uint256",
          "name": "tokenId",
          "type": "uint256"
        }
      ],
      "name": "approve",
      "outputs": [],
      "stateMutability": "nonpayable",
      "type": "function"
    },
    {
      "inputs": [
        {
          "internalType": "address",
          "name": "owner",
          "type": "address"
        }
      ],
      "name": "balanceOf",
      "outputs": [
        {
          "internalType": "uint256",
          "name": "",
          "type": "uint256"
        }
      ],
      "stateMutability": "view",
      "type": "function",
      "constant": true
    },
    {
      "inputs": [
        {
          "internalType": "uint256",
          "name": "tokenId",
          "type": "uint256"
        }
      ],
      "name": "getApproved",
      "outputs": [
        {
          "internalType": "address",
          "name": "",
          "type": "address"
        }
      ],
      "stateMutability": "view",
      "type": "function",
      "constant": true
    },
    {
      "inputs": [
        {
          "internalType": "address",
          "name": "owner",
          "type": "address"
        },
        {
          "internalType": "address",
          "name": "operator",
          "type": "address"
        }
      ],
      "name": "isApprovedForAll",
      "outputs": [
        {
          "internalType": "bool",
          "name": "",
          "type": "bool"
        }
      ],
      "stateMutability": "view",
      "type": "function",
      "constant": true
    },
    {
      "inputs": [],
      "name": "name",
      "outputs": [
        {
          "internalType": "string",
          "name": "",
          "type": "string"
        }
      ],
      "stateMutability": "view",
      "type": "function",
      "constant": true
    },
    {
      "inputs": [],
      "name": "owner",
      "outputs": [
        {
          "internalType": "address",
          "name": "",
          "type": "address"
        }
      ],
      "stateMutability": "view",
      "type": "function",
      "constant": true
    },
    {
      "inputs": [
        {
          "internalType": "uint256",
          "name": "tokenId",
          "type": "uint256"
        }
      ],
      "name": "ownerOf",
      "outputs": [
        {
          "internalType": "address",
          "name": "",
          "type": "address"
        }
      ],
      "stateMutability": "view",
      "type": "function",
      "constant": true
    },
    {
      "inputs": [],
      "name": "renounceOwnership",
      "outputs": [],
      "stateMutability": "nonpayable",
      "type": "function"
    },
    {
      "inputs": [
        {
          "internalType": "address",
          "name": "from",
          "type": "address"
        },
        {
          "internalType": "address",
          "name": "to",
          "type": "address"
        },
        {
          "internalType": "uint256",
          "name": "tokenId",
          "type": "uint256"
        }
      ],
      "name": "safeTransferFrom",
      "outputs": [],
      "stateMutability": "nonpayable",
      "type": "function"
    },
    {
      "inputs": [
        {
          "internalType": "address",
          "name": "from",
          "type": "address"
        },
        {
          "internalType": "address",
          "name": "to",
          "type": "address"
        },
        {
          "internalType": "uint256",
          "name": "tokenId",
          "type": "uint256"
        },
        {
          "internalType": "bytes",
          "name": "_data",
          "type": "bytes"
        }
      ],
      "name": "safeTransferFrom",
      "outputs": [],
      "stateMutability": "nonpayable",
      "type": "function"
    },
    {
      "inputs": [
        {
          "internalType": "address",
          "name": "operator",
          "type": "address"
        },
        {
          "internalType": "bool",
          "name": "approved",
          "type": "bool"
        }
      ],
      "name": "setApprovalForAll",
      "outputs": [],
      "stateMutability": "nonpayable",
      "type": "function"
    },
    {
      "inputs": [],
      "name": "symbol",
      "outputs": [
        {
          "internalType": "string",
          "name": "",
          "type": "string"
        }
      ],
      "stateMutability": "view",
      "type": "function",
      "constant": true
    },
    {
      "inputs": [
        {
          "internalType": "uint256",
          "name": "index",
          "type": "uint256"
        }
      ],
      "name": "tokenByIndex",
      "outputs": [
        {
          "internalType": "uint256",
          "name": "",
          "type": "uint256"
        }
      ],
      "stateMutability": "view",
      "type": "function",
      "constant": true
    },
    {
      "inputs": [
        {
          "internalType": "address",
          "name": "owner",
          "type": "address"
        },
        {
          "internalType": "uint256",
          "name": "index",
          "type": "uint256"
        }
      ],
      "name": "tokenOfOwnerByIndex",
      "outputs": [
        {
          "internalType": "uint256",
          "name": "",
          "type": "uint256"
        }
      ],
      "stateMutability": "view",
      "type": "function",
      "constant": true
    },
    {
      "inputs": [],
      "name": "totalSupply",
      "outputs": [
        {
          "internalType": "uint256",
          "name": "",
          "type": "uint256"
        }
      ],
      "stateMutability": "view",
      "type": "function",
      "constant": true
    },
    {
      "inputs": [
        {
          "internalType": "address",
          "name": "from",
          "type": "address"
        },
        {
          "internalType": "address",
          "name": "to",
          "type": "address"
        },
        {
          "internalType": "uint256",
          "name": "tokenId",
          "type": "uint256"
        }
      ],
      "name": "transferFrom",
      "outputs": [],
      "stateMutability": "nonpayable",
      "type": "function"
    },
    {
      "inputs": [
        {
          "internalType": "address",
          "name": "newOwner",
          "type": "address"
        }
      ],
      "name": "transferOwnership",
      "outputs": [],
      "stateMutability": "nonpayable",
      "type": "function"
    },
    {
      "inputs": [
        {
          "internalType": "uint256",
          "name": "tokenId",
          "type": "uint256"
        },
        {
          "internalType": "address",
          "name": "recipient",
          "type": "address"
        }
      ],
      "name": "mintByUser",
      "outputs": [
        {
          "internalType": "uint256",
          "name": "",
          "type": "uint256"
        }
      ],
      "stateMutability": "payable",
      "type": "function",
      "payable": true
    },
    {
      "inputs": [
        {
          "internalType": "address",
          "name": "to",
          "type": "address"
        },
        {
          "internalType": "uint256",
          "name": "tokenId",
          "type": "uint256"
        },
        {
          "internalType": "string",
          "name": "uri",
          "type": "string"
        }
      ],
      "name": "safeMint",
      "outputs": [],
      "stateMutability": "nonpayable",
      "type": "function"
    },
    {
      "inputs": [
        {
          "internalType": "uint256",
          "name": "tokenId",
          "type": "uint256"
        }
      ],
      "name": "tokenURI",
      "outputs": [
        {
          "internalType": "string",
          "name": "",
          "type": "string"
        }
      ],
      "stateMutability": "view",
      "type": "function",
      "constant": true
    },
    {
      "inputs": [
        {
          "internalType": "bytes4",
          "name": "interfaceId",
          "type": "bytes4"
        }
      ],
      "name": "supportsInterface",
      "outputs": [
        {
          "internalType": "bool",
          "name": "",
          "type": "bool"
        }
      ],
      "stateMutability": "view",
      "type": "function",
      "constant": true
    }
  ],
  "bytecode": "0x60806040523480156200001157600080fd5b506040518060400160405280601081526020017f47726f6f76794475646573546f6b656e000000000000000000000000000000008152506040518060400160405280600381526020017f4756590000000000000000000000000000000000000000000000000000000000815250816000908051906020019062000096929190620001a6565b508060019080519060200190620000af929190620001a6565b505050620000d2620000c6620000d860201b60201c565b620000e060201b60201c565b620002bb565b600033905090565b6000600b60009054906101000a900473ffffffffffffffffffffffffffffffffffffffff16905081600b60006101000a81548173ffffffffffffffffffffffffffffffffffffffff021916908373ffffffffffffffffffffffffffffffffffffffff1602179055508173ffffffffffffffffffffffffffffffffffffffff168173ffffffffffffffffffffffffffffffffffffffff167f8be0079c531659141344cd1fd0a4f28419497f9722a3daafe3b4186f6b6457e060405160405180910390a35050565b828054620001b49062000285565b90600052602060002090601f016020900481019282620001d8576000855562000224565b82601f10620001f357805160ff191683800117855562000224565b8280016001018555821562000224579182015b828111156200022357825182559160200191906001019062000206565b5b50905062000233919062000237565b5090565b5b808211156200025257600081600090555060010162000238565b5090565b7f4e487b7100000000000000000000000000000000000000000000000000000000600052602260045260246000fd5b600060028204905060018216806200029e57607f821691505b60208210811415620002b557620002b462000256565b5b50919050565b613cc080620002cb6000396000f3fe60806040526004361061012a5760003560e01c80636352211e116100ab578063a22cb4651161006f578063a22cb4651461040b578063b88d4fde14610434578063c87b56dd1461045d578063cd279c7c1461049a578063e985e9c5146104c3578063f2fde38b146105005761012a565b80636352211e1461032457806370a0823114610361578063715018a61461039e5780638da5cb5b146103b557806395d89b41146103e05761012a565b806318160ddd116100f257806318160ddd1461022d57806323b872dd146102585780632f745c591461028157806342842e0e146102be5780634f6ccce7146102e75761012a565b806301ffc9a71461012f57806306fdde031461016c578063081812fc14610197578063095ea7b3146101d4578063172ef47b146101fd575b600080fd5b34801561013b57600080fd5b50610156600480360381019061015191906125ad565b610529565b60405161016391906125f5565b60405180910390f35b34801561017857600080fd5b5061018161053b565b60405161018e91906126a9565b60405180910390f35b3480156101a357600080fd5b506101be60048036038101906101b99190612701565b6105cd565b6040516101cb919061276f565b60405180910390f35b3480156101e057600080fd5b506101fb60048036038101906101f691906127b6565b610652565b005b610217600480360381019061021291906127f6565b61076a565b6040516102249190612845565b60405180910390f35b34801561023957600080fd5b506102426108f0565b60405161024f9190612845565b60405180910390f35b34801561026457600080fd5b5061027f600480360381019061027a9190612860565b6108fd565b005b34801561028d57600080fd5b506102a860048036038101906102a391906127b6565b61095d565b6040516102b59190612845565b60405180910390f35b3480156102ca57600080fd5b506102e560048036038101906102e09190612860565b610a02565b005b3480156102f357600080fd5b5061030e60048036038101906103099190612701565b610a22565b60405161031b9190612845565b60405180910390f35b34801561033057600080fd5b5061034b60048036038101906103469190612701565b610a93565b604051610358919061276f565b60405180910390f35b34801561036d57600080fd5b50610388600480360381019061038391906128b3565b610b45565b6040516103959190612845565b60405180910390f35b3480156103aa57600080fd5b506103b3610bfd565b005b3480156103c157600080fd5b506103ca610c85565b6040516103d7919061276f565b60405180910390f35b3480156103ec57600080fd5b506103f5610caf565b60405161040291906126a9565b60405180910390f35b34801561041757600080fd5b50610432600480360381019061042d919061290c565b610d41565b005b34801561044057600080fd5b5061045b60048036038101906104569190612a81565b610d57565b005b34801561046957600080fd5b50610484600480360381019061047f9190612701565b610db9565b60405161049191906126a9565b60405180910390f35b3480156104a657600080fd5b506104c160048036038101906104bc9190612ba5565b610dcb565b005b3480156104cf57600080fd5b506104ea60048036038101906104e59190612c14565b610e60565b6040516104f791906125f5565b60405180910390f35b34801561050c57600080fd5b50610527600480360381019061052291906128b3565b610ef4565b005b600061053482610fec565b9050919050565b60606000805461054a90612c83565b80601f016020809104026020016040519081016040528092919081815260200182805461057690612c83565b80156105c35780601f10610598576101008083540402835291602001916105c3565b820191906000526020600020905b8154815290600101906020018083116105a657829003601f168201915b5050505050905090565b60006105d882611066565b610617576040517f08c379a000000000000000000000000000000000000000000000000000000000815260040161060e90612d27565b60405180910390fd5b6004600083815260200190815260200160002060009054906101000a900473ffffffffffffffffffffffffffffffffffffffff169050919050565b600061065d82610a93565b90508073ffffffffffffffffffffffffffffffffffffffff168373ffffffffffffffffffffffffffffffffffffffff1614156106ce576040517f08c379a00000000000000000000000000000000000000000000000000000000081526004016106c590612db9565b60405180910390fd5b8073ffffffffffffffffffffffffffffffffffffffff166106ed6110d2565b73ffffffffffffffffffffffffffffffffffffffff16148061071c575061071b816107166110d2565b610e60565b5b61075b576040517f08c379a000000000000000000000000000000000000000000000000000000000815260040161075290612e4b565b60405180910390fd5b61076583836110da565b505050565b60006103e883106107b0576040517f08c379a00000000000000000000000000000000000000000000000000000000081526004016107a790612edd565b60405180910390fd5b6107b983611066565b156107f9576040517f08c379a00000000000000000000000000000000000000000000000000000000081526004016107f090612f49565b60405180910390fd5b66b1a2bc2ec50000341015610843576040517f08c379a000000000000000000000000000000000000000000000000000000000815260040161083a90612fb5565b60405180910390fd5b6000604051806060016040528060368152602001613c55603691399050600061086b85611193565b905060006040518060400160405280600581526020017f2e6a736f6e000000000000000000000000000000000000000000000000000000815250905060008383836040516020016108be93929190613011565b60405160208183030381529060405290506108d986886112f4565b6108e387826114c2565b8694505050505092915050565b6000600880549050905090565b61090e6109086110d2565b82611536565b61094d576040517f08c379a0000000000000000000000000000000000000000000000000000000008152600401610944906130b4565b60405180910390fd5b610958838383611614565b505050565b600061096883610b45565b82106109a9576040517f08c379a00000000000000000000000000000000000000000000000000000000081526004016109a090613146565b60405180910390fd5b600660008473ffffffffffffffffffffffffffffffffffffffff1673ffffffffffffffffffffffffffffffffffffffff168152602001908152602001600020600083815260200190815260200160002054905092915050565b610a1d83838360405180602001604052806000815250610d57565b505050565b6000610a2c6108f0565b8210610a6d576040517f08c379a0000000000000000000000000000000000000000000000000000000008152600401610a64906131d8565b60405180910390fd5b60088281548110610a8157610a806131f8565b5b90600052602060002001549050919050565b6000806002600084815260200190815260200160002060009054906101000a900473ffffffffffffffffffffffffffffffffffffffff169050600073ffffffffffffffffffffffffffffffffffffffff168173ffffffffffffffffffffffffffffffffffffffff161415610b3c576040517f08c379a0000000000000000000000000000000000000000000000000000000008152600401610b3390613299565b60405180910390fd5b80915050919050565b60008073ffffffffffffffffffffffffffffffffffffffff168273ffffffffffffffffffffffffffffffffffffffff161415610bb6576040517f08c379a0000000000000000000000000000000000000000000000000000000008152600401610bad9061332b565b60405180910390fd5b600360008373ffffffffffffffffffffffffffffffffffffffff1673ffffffffffffffffffffffffffffffffffffffff168152602001908152602001600020549050919050565b610c056110d2565b73ffffffffffffffffffffffffffffffffffffffff16610c23610c85565b73ffffffffffffffffffffffffffffffffffffffff1614610c79576040517f08c379a0000000000000000000000000000000000000000000000000000000008152600401610c7090613397565b60405180910390fd5b610c836000611870565b565b6000600b60009054906101000a900473ffffffffffffffffffffffffffffffffffffffff16905090565b606060018054610cbe90612c83565b80601f0160208091040260200160405190810160405280929190818152602001828054610cea90612c83565b8015610d375780601f10610d0c57610100808354040283529160200191610d37565b820191906000526020600020905b815481529060010190602001808311610d1a57829003601f168201915b5050505050905090565b610d53610d4c6110d2565b8383611936565b5050565b610d68610d626110d2565b83611536565b610da7576040517f08c379a0000000000000000000000000000000000000000000000000000000008152600401610d9e906130b4565b60405180910390fd5b610db384848484611aa3565b50505050565b6060610dc482611aff565b9050919050565b610dd36110d2565b73ffffffffffffffffffffffffffffffffffffffff16610df1610c85565b73ffffffffffffffffffffffffffffffffffffffff1614610e47576040517f08c379a0000000000000000000000000000000000000000000000000000000008152600401610e3e90613397565b60405180910390fd5b610e518383611c51565b610e5b82826114c2565b505050565b6000600560008473ffffffffffffffffffffffffffffffffffffffff1673ffffffffffffffffffffffffffffffffffffffff16815260200190815260200160002060008373ffffffffffffffffffffffffffffffffffffffff1673ffffffffffffffffffffffffffffffffffffffff16815260200190815260200160002060009054906101000a900460ff16905092915050565b610efc6110d2565b73ffffffffffffffffffffffffffffffffffffffff16610f1a610c85565b73ffffffffffffffffffffffffffffffffffffffff1614610f70576040517f08c379a0000000000000000000000000000000000000000000000000000000008152600401610f6790613397565b60405180910390fd5b600073ffffffffffffffffffffffffffffffffffffffff168173ffffffffffffffffffffffffffffffffffffffff161415610fe0576040517f08c379a0000000000000000000000000000000000000000000000000000000008152600401610fd790613429565b60405180910390fd5b610fe981611870565b50565b60007f780e9d63000000000000000000000000000000000000000000000000000000007bffffffffffffffffffffffffffffffffffffffffffffffffffffffff1916827bffffffffffffffffffffffffffffffffffffffffffffffffffffffff1916148061105f575061105e82611c6f565b5b9050919050565b60008073ffffffffffffffffffffffffffffffffffffffff166002600084815260200190815260200160002060009054906101000a900473ffffffffffffffffffffffffffffffffffffffff1673ffffffffffffffffffffffffffffffffffffffff1614159050919050565b600033905090565b816004600083815260200190815260200160002060006101000a81548173ffffffffffffffffffffffffffffffffffffffff021916908373ffffffffffffffffffffffffffffffffffffffff160217905550808273ffffffffffffffffffffffffffffffffffffffff1661114d83610a93565b73ffffffffffffffffffffffffffffffffffffffff167f8c5be1e5ebec7d5bd14f71427d1e84f3dd0314c0f7b2291e5b200ac8c7c3b92560405160405180910390a45050565b606060008214156111db576040518060400160405280600181526020017f300000000000000000000000000000000000000000000000000000000000000081525090506112ef565b600082905060005b6000821461120d5780806111f690613478565b915050600a8261120691906134f0565b91506111e3565b60008167ffffffffffffffff81111561122957611228612956565b5b6040519080825280601f01601f19166020018201604052801561125b5781602001600182028036833780820191505090505b5090505b600085146112e8576001826112749190613521565b9150600a856112839190613555565b603061128f9190613586565b60f81b8183815181106112a5576112a46131f8565b5b60200101907effffffffffffffffffffffffffffffffffffffffffffffffffffffffffffff1916908160001a905350600a856112e191906134f0565b945061125f565b8093505050505b919050565b600073ffffffffffffffffffffffffffffffffffffffff168273ffffffffffffffffffffffffffffffffffffffff161415611364576040517f08c379a000000000000000000000000000000000000000000000000000000000815260040161135b90613628565b60405180910390fd5b61136d81611066565b156113ad576040517f08c379a00000000000000000000000000000000000000000000000000000000081526004016113a490613694565b60405180910390fd5b6113b960008383611d51565b6001600360008473ffffffffffffffffffffffffffffffffffffffff1673ffffffffffffffffffffffffffffffffffffffff16815260200190815260200160002060008282546114099190613586565b92505081905550816002600083815260200190815260200160002060006101000a81548173ffffffffffffffffffffffffffffffffffffffff021916908373ffffffffffffffffffffffffffffffffffffffff160217905550808273ffffffffffffffffffffffffffffffffffffffff16600073ffffffffffffffffffffffffffffffffffffffff167fddf252ad1be2c89b69c2b068fc378daa952ba7f163c4a11628f55a4df523b3ef60405160405180910390a45050565b6114cb82611066565b61150a576040517f08c379a000000000000000000000000000000000000000000000000000000000815260040161150190613726565b60405180910390fd5b80600a6000848152602001908152602001600020908051906020019061153192919061249e565b505050565b600061154182611066565b611580576040517f08c379a0000000000000000000000000000000000000000000000000000000008152600401611577906137b8565b60405180910390fd5b600061158b83610a93565b90508073ffffffffffffffffffffffffffffffffffffffff168473ffffffffffffffffffffffffffffffffffffffff1614806115fa57508373ffffffffffffffffffffffffffffffffffffffff166115e2846105cd565b73ffffffffffffffffffffffffffffffffffffffff16145b8061160b575061160a8185610e60565b5b91505092915050565b8273ffffffffffffffffffffffffffffffffffffffff1661163482610a93565b73ffffffffffffffffffffffffffffffffffffffff161461168a576040517f08c379a00000000000000000000000000000000000000000000000000000000081526004016116819061384a565b60405180910390fd5b600073ffffffffffffffffffffffffffffffffffffffff168273ffffffffffffffffffffffffffffffffffffffff1614156116fa576040517f08c379a00000000000000000000000000000000000000000000000000000000081526004016116f1906138dc565b60405180910390fd5b611705838383611d51565b6117106000826110da565b6001600360008573ffffffffffffffffffffffffffffffffffffffff1673ffffffffffffffffffffffffffffffffffffffff16815260200190815260200160002060008282546117609190613521565b925050819055506001600360008473ffffffffffffffffffffffffffffffffffffffff1673ffffffffffffffffffffffffffffffffffffffff16815260200190815260200160002060008282546117b79190613586565b92505081905550816002600083815260200190815260200160002060006101000a81548173ffffffffffffffffffffffffffffffffffffffff021916908373ffffffffffffffffffffffffffffffffffffffff160217905550808273ffffffffffffffffffffffffffffffffffffffff168473ffffffffffffffffffffffffffffffffffffffff167fddf252ad1be2c89b69c2b068fc378daa952ba7f163c4a11628f55a4df523b3ef60405160405180910390a4505050565b6000600b60009054906101000a900473ffffffffffffffffffffffffffffffffffffffff16905081600b60006101000a81548173ffffffffffffffffffffffffffffffffffffffff021916908373ffffffffffffffffffffffffffffffffffffffff1602179055508173ffffffffffffffffffffffffffffffffffffffff168173ffffffffffffffffffffffffffffffffffffffff167f8be0079c531659141344cd1fd0a4f28419497f9722a3daafe3b4186f6b6457e060405160405180910390a35050565b8173ffffffffffffffffffffffffffffffffffffffff168373ffffffffffffffffffffffffffffffffffffffff1614156119a5576040517f08c379a000000000000000000000000000000000000000000000000000000000815260040161199c90613948565b60405180910390fd5b80600560008573ffffffffffffffffffffffffffffffffffffffff1673ffffffffffffffffffffffffffffffffffffffff16815260200190815260200160002060008473ffffffffffffffffffffffffffffffffffffffff1673ffffffffffffffffffffffffffffffffffffffff16815260200190815260200160002060006101000a81548160ff0219169083151502179055508173ffffffffffffffffffffffffffffffffffffffff168373ffffffffffffffffffffffffffffffffffffffff167f17307eab39ab6107e8899845ad3d59bd9653f200f220920489ca2b5937696c3183604051611a9691906125f5565b60405180910390a3505050565b611aae848484611614565b611aba84848484611d61565b611af9576040517f08c379a0000000000000000000000000000000000000000000000000000000008152600401611af0906139da565b60405180910390fd5b50505050565b6060611b0a82611066565b611b49576040517f08c379a0000000000000000000000000000000000000000000000000000000008152600401611b4090613a6c565b60405180910390fd5b6000600a60008481526020019081526020016000208054611b6990612c83565b80601f0160208091040260200160405190810160405280929190818152602001828054611b9590612c83565b8015611be25780601f10611bb757610100808354040283529160200191611be2565b820191906000526020600020905b815481529060010190602001808311611bc557829003601f168201915b505050505090506000611bf3611ee9565b9050600081511415611c09578192505050611c4c565b600082511115611c3e578082604051602001611c26929190613a8c565b60405160208183030381529060405292505050611c4c565b611c4784611f00565b925050505b919050565b611c6b828260405180602001604052806000815250611fa7565b5050565b60007f80ac58cd000000000000000000000000000000000000000000000000000000007bffffffffffffffffffffffffffffffffffffffffffffffffffffffff1916827bffffffffffffffffffffffffffffffffffffffffffffffffffffffff19161480611d3a57507f5b5e139f000000000000000000000000000000000000000000000000000000007bffffffffffffffffffffffffffffffffffffffffffffffffffffffff1916827bffffffffffffffffffffffffffffffffffffffffffffffffffffffff1916145b80611d4a5750611d4982612002565b5b9050919050565b611d5c83838361206c565b505050565b6000611d828473ffffffffffffffffffffffffffffffffffffffff16612180565b15611edc578373ffffffffffffffffffffffffffffffffffffffff1663150b7a02611dab6110d2565b8786866040518563ffffffff1660e01b8152600401611dcd9493929190613b05565b6020604051808303816000875af1925050508015611e0957506040513d601f19601f82011682018060405250810190611e069190613b66565b60015b611e8c573d8060008114611e39576040519150601f19603f3d011682016040523d82523d6000602084013e611e3e565b606091505b50600081511415611e84576040517f08c379a0000000000000000000000000000000000000000000000000000000008152600401611e7b906139da565b60405180910390fd5b805181602001fd5b63150b7a0260e01b7bffffffffffffffffffffffffffffffffffffffffffffffffffffffff1916817bffffffffffffffffffffffffffffffffffffffffffffffffffffffff191614915050611ee1565b600190505b949350505050565b606060405180602001604052806000815250905090565b6060611f0b82611066565b611f4a576040517f08c379a0000000000000000000000000000000000000000000000000000000008152600401611f4190613c05565b60405180910390fd5b6000611f54611ee9565b90506000815111611f745760405180602001604052806000815250611f9f565b80611f7e84611193565b604051602001611f8f929190613a8c565b6040516020818303038152906040525b915050919050565b611fb183836112f4565b611fbe6000848484611d61565b611ffd576040517f08c379a0000000000000000000000000000000000000000000000000000000008152600401611ff4906139da565b60405180910390fd5b505050565b60007f01ffc9a7000000000000000000000000000000000000000000000000000000007bffffffffffffffffffffffffffffffffffffffffffffffffffffffff1916827bffffffffffffffffffffffffffffffffffffffffffffffffffffffff1916149050919050565b612077838383612193565b600073ffffffffffffffffffffffffffffffffffffffff168373ffffffffffffffffffffffffffffffffffffffff1614156120ba576120b581612198565b6120f9565b8173ffffffffffffffffffffffffffffffffffffffff168373ffffffffffffffffffffffffffffffffffffffff16146120f8576120f783826121e1565b5b5b600073ffffffffffffffffffffffffffffffffffffffff168273ffffffffffffffffffffffffffffffffffffffff16141561213c576121378161234e565b61217b565b8273ffffffffffffffffffffffffffffffffffffffff168273ffffffffffffffffffffffffffffffffffffffff161461217a57612179828261241f565b5b5b505050565b600080823b905060008111915050919050565b505050565b6008805490506009600083815260200190815260200160002081905550600881908060018154018082558091505060019003906000526020600020016000909190919091505550565b600060016121ee84610b45565b6121f89190613521565b90506000600760008481526020019081526020016000205490508181146122dd576000600660008673ffffffffffffffffffffffffffffffffffffffff1673ffffffffffffffffffffffffffffffffffffffff168152602001908152602001600020600084815260200190815260200160002054905080600660008773ffffffffffffffffffffffffffffffffffffffff1673ffffffffffffffffffffffffffffffffffffffff168152602001908152602001600020600084815260200190815260200160002081905550816007600083815260200190815260200160002081905550505b6007600084815260200190815260200160002060009055600660008573ffffffffffffffffffffffffffffffffffffffff1673ffffffffffffffffffffffffffffffffffffffff16815260200190815260200160002060008381526020019081526020016000206000905550505050565b600060016008805490506123629190613521565b9050600060096000848152602001908152602001600020549050600060088381548110612392576123916131f8565b5b9060005260206000200154905080600883815481106123b4576123b36131f8565b5b90600052602060002001819055508160096000838152602001908152602001600020819055506009600085815260200190815260200160002060009055600880548061240357612402613c25565b5b6001900381819060005260206000200160009055905550505050565b600061242a83610b45565b905081600660008573ffffffffffffffffffffffffffffffffffffffff1673ffffffffffffffffffffffffffffffffffffffff168152602001908152602001600020600083815260200190815260200160002081905550806007600084815260200190815260200160002081905550505050565b8280546124aa90612c83565b90600052602060002090601f0160209004810192826124cc5760008555612513565b82601f106124e557805160ff1916838001178555612513565b82800160010185558215612513579182015b828111156125125782518255916020019190600101906124f7565b5b5090506125209190612524565b5090565b5b8082111561253d576000816000905550600101612525565b5090565b6000604051905090565b600080fd5b600080fd5b60007fffffffff0000000000000000000000000000000000000000000000000000000082169050919050565b61258a81612555565b811461259557600080fd5b50565b6000813590506125a781612581565b92915050565b6000602082840312156125c3576125c261254b565b5b60006125d184828501612598565b91505092915050565b60008115159050919050565b6125ef816125da565b82525050565b600060208201905061260a60008301846125e6565b92915050565b600081519050919050565b600082825260208201905092915050565b60005b8381101561264a57808201518184015260208101905061262f565b83811115612659576000848401525b50505050565b6000601f19601f8301169050919050565b600061267b82612610565b612685818561261b565b935061269581856020860161262c565b61269e8161265f565b840191505092915050565b600060208201905081810360008301526126c38184612670565b905092915050565b6000819050919050565b6126de816126cb565b81146126e957600080fd5b50565b6000813590506126fb816126d5565b92915050565b6000602082840312156127175761271661254b565b5b6000612725848285016126ec565b91505092915050565b600073ffffffffffffffffffffffffffffffffffffffff82169050919050565b60006127598261272e565b9050919050565b6127698161274e565b82525050565b60006020820190506127846000830184612760565b92915050565b6127938161274e565b811461279e57600080fd5b50565b6000813590506127b08161278a565b92915050565b600080604083850312156127cd576127cc61254b565b5b60006127db858286016127a1565b92505060206127ec858286016126ec565b9150509250929050565b6000806040838503121561280d5761280c61254b565b5b600061281b858286016126ec565b925050602061282c858286016127a1565b9150509250929050565b61283f816126cb565b82525050565b600060208201905061285a6000830184612836565b92915050565b6000806000606084860312156128795761287861254b565b5b6000612887868287016127a1565b9350506020612898868287016127a1565b92505060406128a9868287016126ec565b9150509250925092565b6000602082840312156128c9576128c861254b565b5b60006128d7848285016127a1565b91505092915050565b6128e9816125da565b81146128f457600080fd5b50565b600081359050612906816128e0565b92915050565b600080604083850312156129235761292261254b565b5b6000612931858286016127a1565b9250506020612942858286016128f7565b9150509250929050565b600080fd5b600080fd5b7f4e487b7100000000000000000000000000000000000000000000000000000000600052604160045260246000fd5b61298e8261265f565b810181811067ffffffffffffffff821117156129ad576129ac612956565b5b80604052505050565b60006129c0612541565b90506129cc8282612985565b919050565b600067ffffffffffffffff8211156129ec576129eb612956565b5b6129f58261265f565b9050602081019050919050565b82818337600083830152505050565b6000612a24612a1f846129d1565b6129b6565b905082815260208101848484011115612a4057612a3f612951565b5b612a4b848285612a02565b509392505050565b600082601f830112612a6857612a6761294c565b5b8135612a78848260208601612a11565b91505092915050565b60008060008060808587031215612a9b57612a9a61254b565b5b6000612aa9878288016127a1565b9450506020612aba878288016127a1565b9350506040612acb878288016126ec565b925050606085013567ffffffffffffffff811115612aec57612aeb612550565b5b612af887828801612a53565b91505092959194509250565b600067ffffffffffffffff821115612b1f57612b1e612956565b5b612b288261265f565b9050602081019050919050565b6000612b48612b4384612b04565b6129b6565b905082815260208101848484011115612b6457612b63612951565b5b612b6f848285612a02565b509392505050565b600082601f830112612b8c57612b8b61294c565b5b8135612b9c848260208601612b35565b91505092915050565b600080600060608486031215612bbe57612bbd61254b565b5b6000612bcc868287016127a1565b9350506020612bdd868287016126ec565b925050604084013567ffffffffffffffff811115612bfe57612bfd612550565b5b612c0a86828701612b77565b9150509250925092565b60008060408385031215612c2b57612c2a61254b565b5b6000612c39858286016127a1565b9250506020612c4a858286016127a1565b9150509250929050565b7f4e487b7100000000000000000000000000000000000000000000000000000000600052602260045260246000fd5b60006002820490506001821680612c9b57607f821691505b60208210811415612caf57612cae612c54565b5b50919050565b7f4552433732313a20617070726f76656420717565727920666f72206e6f6e657860008201527f697374656e7420746f6b656e0000000000000000000000000000000000000000602082015250565b6000612d11602c8361261b565b9150612d1c82612cb5565b604082019050919050565b60006020820190508181036000830152612d4081612d04565b9050919050565b7f4552433732313a20617070726f76616c20746f2063757272656e74206f776e6560008201527f7200000000000000000000000000000000000000000000000000000000000000602082015250565b6000612da360218361261b565b9150612dae82612d47565b604082019050919050565b60006020820190508181036000830152612dd281612d96565b9050919050565b7f4552433732313a20617070726f76652063616c6c6572206973206e6f74206f7760008201527f6e6572206e6f7220617070726f76656420666f7220616c6c0000000000000000602082015250565b6000612e3560388361261b565b9150612e4082612dd9565b604082019050919050565b60006020820190508181036000830152612e6481612e28565b9050919050565b7f496e76616c696420746f6b656e2069642e2056616c69642072616e676520697360008201527f203020746f203939392e00000000000000000000000000000000000000000000602082015250565b6000612ec7602a8361261b565b9150612ed282612e6b565b604082019050919050565b60006020820190508181036000830152612ef681612eba565b9050919050565b7f546f6b656e2068617320616c7265616479206265656e206d696e7465642e0000600082015250565b6000612f33601e8361261b565b9150612f3e82612efd565b602082019050919050565b60006020820190508181036000830152612f6281612f26565b9050919050565b7f4d696e696d756d20707269636520697320302e30352045544800000000000000600082015250565b6000612f9f60198361261b565b9150612faa82612f69565b602082019050919050565b60006020820190508181036000830152612fce81612f92565b9050919050565b600081905092915050565b6000612feb82612610565b612ff58185612fd5565b935061300581856020860161262c565b80840191505092915050565b600061301d8286612fe0565b91506130298285612fe0565b91506130358284612fe0565b9150819050949350505050565b7f4552433732313a207472616e736665722063616c6c6572206973206e6f74206f60008201527f776e6572206e6f7220617070726f766564000000000000000000000000000000602082015250565b600061309e60318361261b565b91506130a982613042565b604082019050919050565b600060208201905081810360008301526130cd81613091565b9050919050565b7f455243373231456e756d657261626c653a206f776e657220696e646578206f7560008201527f74206f6620626f756e6473000000000000000000000000000000000000000000602082015250565b6000613130602b8361261b565b915061313b826130d4565b604082019050919050565b6000602082019050818103600083015261315f81613123565b9050919050565b7f455243373231456e756d657261626c653a20676c6f62616c20696e646578206f60008201527f7574206f6620626f756e64730000000000000000000000000000000000000000602082015250565b60006131c2602c8361261b565b91506131cd82613166565b604082019050919050565b600060208201905081810360008301526131f1816131b5565b9050919050565b7f4e487b7100000000000000000000000000000000000000000000000000000000600052603260045260246000fd5b7f4552433732313a206f776e657220717565727920666f72206e6f6e657869737460008201527f656e7420746f6b656e0000000000000000000000000000000000000000000000602082015250565b600061328360298361261b565b915061328e82613227565b604082019050919050565b600060208201905081810360008301526132b281613276565b9050919050565b7f4552433732313a2062616c616e636520717565727920666f7220746865207a6560008201527f726f206164647265737300000000000000000000000000000000000000000000602082015250565b6000613315602a8361261b565b9150613320826132b9565b604082019050919050565b6000602082019050818103600083015261334481613308565b9050919050565b7f4f776e61626c653a2063616c6c6572206973206e6f7420746865206f776e6572600082015250565b600061338160208361261b565b915061338c8261334b565b602082019050919050565b600060208201905081810360008301526133b081613374565b9050919050565b7f4f776e61626c653a206e6577206f776e657220697320746865207a65726f206160008201527f6464726573730000000000000000000000000000000000000000000000000000602082015250565b600061341360268361261b565b915061341e826133b7565b604082019050919050565b6000602082019050818103600083015261344281613406565b9050919050565b7f4e487b7100000000000000000000000000000000000000000000000000000000600052601160045260246000fd5b6000613483826126cb565b91507fffffffffffffffffffffffffffffffffffffffffffffffffffffffffffffffff8214156134b6576134b5613449565b5b600182019050919050565b7f4e487b7100000000000000000000000000000000000000000000000000000000600052601260045260246000fd5b60006134fb826126cb565b9150613506836126cb565b925082613516576135156134c1565b5b828204905092915050565b600061352c826126cb565b9150613537836126cb565b92508282101561354a57613549613449565b5b828203905092915050565b6000613560826126cb565b915061356b836126cb565b92508261357b5761357a6134c1565b5b828206905092915050565b6000613591826126cb565b915061359c836126cb565b9250827fffffffffffffffffffffffffffffffffffffffffffffffffffffffffffffffff038211156135d1576135d0613449565b5b828201905092915050565b7f4552433732313a206d696e7420746f20746865207a65726f2061646472657373600082015250565b600061361260208361261b565b915061361d826135dc565b602082019050919050565b6000602082019050818103600083015261364181613605565b9050919050565b7f4552433732313a20746f6b656e20616c7265616479206d696e74656400000000600082015250565b600061367e601c8361261b565b915061368982613648565b602082019050919050565b600060208201905081810360008301526136ad81613671565b9050919050565b7f45524337323155524953746f726167653a2055524920736574206f66206e6f6e60008201527f6578697374656e7420746f6b656e000000000000000000000000000000000000602082015250565b6000613710602e8361261b565b915061371b826136b4565b604082019050919050565b6000602082019050818103600083015261373f81613703565b9050919050565b7f4552433732313a206f70657261746f7220717565727920666f72206e6f6e657860008201527f697374656e7420746f6b656e0000000000000000000000000000000000000000602082015250565b60006137a2602c8361261b565b91506137ad82613746565b604082019050919050565b600060208201905081810360008301526137d181613795565b9050919050565b7f4552433732313a207472616e73666572206f6620746f6b656e2074686174206960008201527f73206e6f74206f776e0000000000000000000000000000000000000000000000602082015250565b600061383460298361261b565b915061383f826137d8565b604082019050919050565b6000602082019050818103600083015261386381613827565b9050919050565b7f4552433732313a207472616e7366657220746f20746865207a65726f2061646460008201527f7265737300000000000000000000000000000000000000000000000000000000602082015250565b60006138c660248361261b565b91506138d18261386a565b604082019050919050565b600060208201905081810360008301526138f5816138b9565b9050919050565b7f4552433732313a20617070726f766520746f2063616c6c657200000000000000600082015250565b600061393260198361261b565b915061393d826138fc565b602082019050919050565b6000602082019050818103600083015261396181613925565b9050919050565b7f4552433732313a207472616e7366657220746f206e6f6e20455243373231526560008201527f63656976657220696d706c656d656e7465720000000000000000000000000000602082015250565b60006139c460328361261b565b91506139cf82613968565b604082019050919050565b600060208201905081810360008301526139f3816139b7565b9050919050565b7f45524337323155524953746f726167653a2055524920717565727920666f722060008201527f6e6f6e6578697374656e7420746f6b656e000000000000000000000000000000602082015250565b6000613a5660318361261b565b9150613a61826139fa565b604082019050919050565b60006020820190508181036000830152613a8581613a49565b9050919050565b6000613a988285612fe0565b9150613aa48284612fe0565b91508190509392505050565b600081519050919050565b600082825260208201905092915050565b6000613ad782613ab0565b613ae18185613abb565b9350613af181856020860161262c565b613afa8161265f565b840191505092915050565b6000608082019050613b1a6000830187612760565b613b276020830186612760565b613b346040830185612836565b8181036060830152613b468184613acc565b905095945050505050565b600081519050613b6081612581565b92915050565b600060208284031215613b7c57613b7b61254b565b5b6000613b8a84828501613b51565b91505092915050565b7f4552433732314d657461646174613a2055524920717565727920666f72206e6f60008201527f6e6578697374656e7420746f6b656e0000000000000000000000000000000000602082015250565b6000613bef602f8361261b565b9150613bfa82613b93565b604082019050919050565b60006020820190508181036000830152613c1e81613be2565b9050919050565b7f4e487b7100000000000000000000000000000000000000000000000000000000600052603160045260246000fdfe697066733a2f2f516d6171734b464d666f66585654786a4e7139706f417646476f6461586245337a4e71586b6750415970504e6f562fa26469706673582212203c53c528ea914f025519b971396c16ec18e5675211677434d98e7d814b5aef4764736f6c634300080b0033",
  "immutableReferences": {},
  "source": "// SPDX-License-Identifier: MIT\npragma solidity ^0.8.2;\n\nimport \"@openzeppelin/contracts/token/ERC721/ERC721.sol\";\nimport \"@openzeppelin/contracts/token/ERC721/extensions/ERC721Enumerable.sol\";\nimport \"@openzeppelin/contracts/token/ERC721/extensions/ERC721URIStorage.sol\";\nimport \"@openzeppelin/contracts/access/Ownable.sol\";\nimport \"@openzeppelin/contracts/utils/Strings.sol\";\n\ncontract GroovyDudesToken is ERC721, ERC721Enumerable, ERC721URIStorage, Ownable {\n  constructor() ERC721(\"GroovyDudesToken\", \"GVY\") {}\n\n  function mintByUser(\n    uint256 tokenId,\n    address recipient\n  ) public payable returns (uint256) {\n    require(tokenId < 1000, 'Invalid token id. Valid range is 0 to 999.');\n    require(!_exists(tokenId), 'Token has already been minted.');\n    require (msg.value >= 0.05 ether, 'Minimum price is 0.05 ETH');\n\n    string memory urlPrefix = 'ipfs://QmaqsKFMfofXVTxjNq9poAvFGodaXbE3zNqXkgPAYpPNoV/';\n    string memory idString = Strings.toString(tokenId);\n    string memory urlSuffix = '.json';\n    string memory metadataURI = string(abi.encodePacked(urlPrefix, idString, urlSuffix));\n    _mint(recipient, tokenId);\n    _setTokenURI(tokenId, metadataURI);\n\n    return tokenId;\n  }\n\n  // Code below generated by OpenZeppelin wizard\n  // https://docs.openzeppelin.com/contracts/4.x/wizard\n\n  function safeMint(address to, uint256 tokenId, string memory uri)\n    public\n    onlyOwner\n  {\n    _safeMint(to, tokenId);\n    _setTokenURI(tokenId, uri);\n  }\n\n  // The following functions are overrides required by Solidity.\n\n  function _beforeTokenTransfer(address from, address to, uint256 tokenId)\n    internal\n    override(ERC721, ERC721Enumerable)\n  {\n    super._beforeTokenTransfer(from, to, tokenId);\n  }\n\n  function _burn(uint256 tokenId) internal override(ERC721, ERC721URIStorage) {\n    super._burn(tokenId);\n  }\n\n  function tokenURI(uint256 tokenId)\n    public\n    view\n    override(ERC721, ERC721URIStorage)\n    returns (string memory)\n  {\n    return super.tokenURI(tokenId);\n  }\n\n  function supportsInterface(bytes4 interfaceId)\n    public\n    view\n    override(ERC721, ERC721Enumerable)\n    returns (bool)\n  {\n    return super.supportsInterface(interfaceId);\n  }\n\n}\n",
  "sourcePath": "/Users/richardthompson/Documents/dev/nft-minter/contracts/GroovyDudesToken.sol",
  "compiler": {
    "name": "solc",
    "version": "0.8.11+commit.d7f03943.Emscripten.clang"
  },
  "schemaVersion": "3.4.4",
  "updatedAt": "2022-02-10T01:00:52.378Z",
  "networkType": "ethereum",
  "devdoc": {
    "kind": "dev",
    "methods": {
      "approve(address,uint256)": {
        "details": "See {IERC721-approve}."
      },
      "balanceOf(address)": {
        "details": "See {IERC721-balanceOf}."
      },
      "getApproved(uint256)": {
        "details": "See {IERC721-getApproved}."
      },
      "isApprovedForAll(address,address)": {
        "details": "See {IERC721-isApprovedForAll}."
      },
      "name()": {
        "details": "See {IERC721Metadata-name}."
      },
      "owner()": {
        "details": "Returns the address of the current owner."
      },
      "ownerOf(uint256)": {
        "details": "See {IERC721-ownerOf}."
      },
      "renounceOwnership()": {
        "details": "Leaves the contract without owner. It will not be possible to call `onlyOwner` functions anymore. Can only be called by the current owner. NOTE: Renouncing ownership will leave the contract without an owner, thereby removing any functionality that is only available to the owner."
      },
      "safeTransferFrom(address,address,uint256)": {
        "details": "See {IERC721-safeTransferFrom}."
      },
      "safeTransferFrom(address,address,uint256,bytes)": {
        "details": "See {IERC721-safeTransferFrom}."
      },
      "setApprovalForAll(address,bool)": {
        "details": "See {IERC721-setApprovalForAll}."
      },
      "symbol()": {
        "details": "See {IERC721Metadata-symbol}."
      },
      "tokenByIndex(uint256)": {
        "details": "See {IERC721Enumerable-tokenByIndex}."
      },
      "tokenOfOwnerByIndex(address,uint256)": {
        "details": "See {IERC721Enumerable-tokenOfOwnerByIndex}."
      },
      "totalSupply()": {
        "details": "See {IERC721Enumerable-totalSupply}."
      },
      "transferFrom(address,address,uint256)": {
        "details": "See {IERC721-transferFrom}."
      },
      "transferOwnership(address)": {
        "details": "Transfers ownership of the contract to a new account (`newOwner`). Can only be called by the current owner."
      }
    },
    "version": 1
  },
  "userdoc": {
    "kind": "user",
    "methods": {},
    "version": 1
  }
}