{
  "contractName": "GroovyDudesToken",
  "abi": [
    {
      "inputs": [],
      "stateMutability": "nonpayable",
      "type": "constructor"
    },
    {
      "anonymous": false,
      "inputs": [
        {
          "indexed": true,
          "internalType": "address",
          "name": "owner",
          "type": "address"
        },
        {
          "indexed": true,
          "internalType": "address",
          "name": "approved",
          "type": "address"
        },
        {
          "indexed": true,
          "internalType": "uint256",
          "name": "tokenId",
          "type": "uint256"
        }
      ],
      "name": "Approval",
      "type": "event"
    },
    {
      "anonymous": false,
      "inputs": [
        {
          "indexed": true,
          "internalType": "address",
          "name": "owner",
          "type": "address"
        },
        {
          "indexed": true,
          "internalType": "address",
          "name": "operator",
          "type": "address"
        },
        {
          "indexed": false,
          "internalType": "bool",
          "name": "approved",
          "type": "bool"
        }
      ],
      "name": "ApprovalForAll",
      "type": "event"
    },
    {
      "anonymous": false,
      "inputs": [
        {
          "indexed": true,
          "internalType": "address",
          "name": "previousOwner",
          "type": "address"
        },
        {
          "indexed": true,
          "internalType": "address",
          "name": "newOwner",
          "type": "address"
        }
      ],
      "name": "OwnershipTransferred",
      "type": "event"
    },
    {
      "anonymous": false,
      "inputs": [
        {
          "indexed": true,
          "internalType": "address",
          "name": "from",
          "type": "address"
        },
        {
          "indexed": true,
          "internalType": "address",
          "name": "to",
          "type": "address"
        },
        {
          "indexed": true,
          "internalType": "uint256",
          "name": "tokenId",
          "type": "uint256"
        }
      ],
      "name": "Transfer",
      "type": "event"
    },
    {
      "inputs": [
        {
          "internalType": "address",
          "name": "to",
          "type": "address"
        },
        {
          "internalType": "uint256",
          "name": "tokenId",
          "type": "uint256"
        }
      ],
      "name": "approve",
      "outputs": [],
      "stateMutability": "nonpayable",
      "type": "function"
    },
    {
      "inputs": [
        {
          "internalType": "address",
          "name": "owner",
          "type": "address"
        }
      ],
      "name": "balanceOf",
      "outputs": [
        {
          "internalType": "uint256",
          "name": "",
          "type": "uint256"
        }
      ],
      "stateMutability": "view",
      "type": "function",
      "constant": true
    },
    {
      "inputs": [
        {
          "internalType": "uint256",
          "name": "tokenId",
          "type": "uint256"
        }
      ],
      "name": "getApproved",
      "outputs": [
        {
          "internalType": "address",
          "name": "",
          "type": "address"
        }
      ],
      "stateMutability": "view",
      "type": "function",
      "constant": true
    },
    {
      "inputs": [
        {
          "internalType": "address",
          "name": "owner",
          "type": "address"
        },
        {
          "internalType": "address",
          "name": "operator",
          "type": "address"
        }
      ],
      "name": "isApprovedForAll",
      "outputs": [
        {
          "internalType": "bool",
          "name": "",
          "type": "bool"
        }
      ],
      "stateMutability": "view",
      "type": "function",
      "constant": true
    },
    {
      "inputs": [],
      "name": "name",
      "outputs": [
        {
          "internalType": "string",
          "name": "",
          "type": "string"
        }
      ],
      "stateMutability": "view",
      "type": "function",
      "constant": true
    },
    {
      "inputs": [],
      "name": "owner",
      "outputs": [
        {
          "internalType": "address",
          "name": "",
          "type": "address"
        }
      ],
      "stateMutability": "view",
      "type": "function",
      "constant": true
    },
    {
      "inputs": [
        {
          "internalType": "uint256",
          "name": "tokenId",
          "type": "uint256"
        }
      ],
      "name": "ownerOf",
      "outputs": [
        {
          "internalType": "address",
          "name": "",
          "type": "address"
        }
      ],
      "stateMutability": "view",
      "type": "function",
      "constant": true
    },
    {
      "inputs": [],
      "name": "renounceOwnership",
      "outputs": [],
      "stateMutability": "nonpayable",
      "type": "function"
    },
    {
      "inputs": [
        {
          "internalType": "address",
          "name": "from",
          "type": "address"
        },
        {
          "internalType": "address",
          "name": "to",
          "type": "address"
        },
        {
          "internalType": "uint256",
          "name": "tokenId",
          "type": "uint256"
        }
      ],
      "name": "safeTransferFrom",
      "outputs": [],
      "stateMutability": "nonpayable",
      "type": "function"
    },
    {
      "inputs": [
        {
          "internalType": "address",
          "name": "from",
          "type": "address"
        },
        {
          "internalType": "address",
          "name": "to",
          "type": "address"
        },
        {
          "internalType": "uint256",
          "name": "tokenId",
          "type": "uint256"
        },
        {
          "internalType": "bytes",
          "name": "_data",
          "type": "bytes"
        }
      ],
      "name": "safeTransferFrom",
      "outputs": [],
      "stateMutability": "nonpayable",
      "type": "function"
    },
    {
      "inputs": [
        {
          "internalType": "address",
          "name": "operator",
          "type": "address"
        },
        {
          "internalType": "bool",
          "name": "approved",
          "type": "bool"
        }
      ],
      "name": "setApprovalForAll",
      "outputs": [],
      "stateMutability": "nonpayable",
      "type": "function"
    },
    {
      "inputs": [],
      "name": "symbol",
      "outputs": [
        {
          "internalType": "string",
          "name": "",
          "type": "string"
        }
      ],
      "stateMutability": "view",
      "type": "function",
      "constant": true
    },
    {
      "inputs": [
        {
          "internalType": "uint256",
          "name": "index",
          "type": "uint256"
        }
      ],
      "name": "tokenByIndex",
      "outputs": [
        {
          "internalType": "uint256",
          "name": "",
          "type": "uint256"
        }
      ],
      "stateMutability": "view",
      "type": "function",
      "constant": true
    },
    {
      "inputs": [
        {
          "internalType": "address",
          "name": "owner",
          "type": "address"
        },
        {
          "internalType": "uint256",
          "name": "index",
          "type": "uint256"
        }
      ],
      "name": "tokenOfOwnerByIndex",
      "outputs": [
        {
          "internalType": "uint256",
          "name": "",
          "type": "uint256"
        }
      ],
      "stateMutability": "view",
      "type": "function",
      "constant": true
    },
    {
      "inputs": [],
      "name": "totalSupply",
      "outputs": [
        {
          "internalType": "uint256",
          "name": "",
          "type": "uint256"
        }
      ],
      "stateMutability": "view",
      "type": "function",
      "constant": true
    },
    {
      "inputs": [
        {
          "internalType": "address",
          "name": "from",
          "type": "address"
        },
        {
          "internalType": "address",
          "name": "to",
          "type": "address"
        },
        {
          "internalType": "uint256",
          "name": "tokenId",
          "type": "uint256"
        }
      ],
      "name": "transferFrom",
      "outputs": [],
      "stateMutability": "nonpayable",
      "type": "function"
    },
    {
      "inputs": [
        {
          "internalType": "address",
          "name": "newOwner",
          "type": "address"
        }
      ],
      "name": "transferOwnership",
      "outputs": [],
      "stateMutability": "nonpayable",
      "type": "function"
    },
    {
      "inputs": [
        {
          "internalType": "uint256",
          "name": "tokenId",
          "type": "uint256"
        },
        {
          "internalType": "address",
          "name": "recipient",
          "type": "address"
        },
        {
          "internalType": "string",
          "name": "metadataURI",
          "type": "string"
        }
      ],
      "name": "mintByUser",
      "outputs": [
        {
          "internalType": "uint256",
          "name": "",
          "type": "uint256"
        }
      ],
      "stateMutability": "payable",
      "type": "function",
      "payable": true
    },
    {
      "inputs": [
        {
          "internalType": "address",
          "name": "to",
          "type": "address"
        },
        {
          "internalType": "uint256",
          "name": "tokenId",
          "type": "uint256"
        },
        {
          "internalType": "string",
          "name": "uri",
          "type": "string"
        }
      ],
      "name": "safeMint",
      "outputs": [],
      "stateMutability": "nonpayable",
      "type": "function"
    },
    {
      "inputs": [
        {
          "internalType": "uint256",
          "name": "tokenId",
          "type": "uint256"
        }
      ],
      "name": "tokenURI",
      "outputs": [
        {
          "internalType": "string",
          "name": "",
          "type": "string"
        }
      ],
      "stateMutability": "view",
      "type": "function",
      "constant": true
    },
    {
      "inputs": [
        {
          "internalType": "bytes4",
          "name": "interfaceId",
          "type": "bytes4"
        }
      ],
      "name": "supportsInterface",
      "outputs": [
        {
          "internalType": "bool",
          "name": "",
          "type": "bool"
        }
      ],
      "stateMutability": "view",
      "type": "function",
      "constant": true
    }
  ],
  "bytecode": "0x60806040523480156200001157600080fd5b506040518060400160405280601081526020017f47726f6f76794475646573546f6b656e000000000000000000000000000000008152506040518060400160405280600381526020017f4756590000000000000000000000000000000000000000000000000000000000815250816000908051906020019062000096929190620001a6565b508060019080519060200190620000af929190620001a6565b505050620000d2620000c6620000d860201b60201c565b620000e060201b60201c565b620002bb565b600033905090565b6000600b60009054906101000a900473ffffffffffffffffffffffffffffffffffffffff16905081600b60006101000a81548173ffffffffffffffffffffffffffffffffffffffff021916908373ffffffffffffffffffffffffffffffffffffffff1602179055508173ffffffffffffffffffffffffffffffffffffffff168173ffffffffffffffffffffffffffffffffffffffff167f8be0079c531659141344cd1fd0a4f28419497f9722a3daafe3b4186f6b6457e060405160405180910390a35050565b828054620001b49062000285565b90600052602060002090601f016020900481019282620001d8576000855562000224565b82601f10620001f357805160ff191683800117855562000224565b8280016001018555821562000224579182015b828111156200022357825182559160200191906001019062000206565b5b50905062000233919062000237565b5090565b5b808211156200025257600081600090555060010162000238565b5090565b7f4e487b7100000000000000000000000000000000000000000000000000000000600052602260045260246000fd5b600060028204905060018216806200029e57607f821691505b60208210811415620002b557620002b462000256565b5b50919050565b613bf980620002cb6000396000f3fe60806040526004361061012a5760003560e01c806370a08231116100ab578063b88d4fde1161006f578063b88d4fde14610404578063c87b56dd1461042d578063cd279c7c1461046a578063e407676014610493578063e985e9c5146104c3578063f2fde38b146105005761012a565b806370a0823114610331578063715018a61461036e5780638da5cb5b1461038557806395d89b41146103b0578063a22cb465146103db5761012a565b806323b872dd116100f257806323b872dd146102285780632f745c591461025157806342842e0e1461028e5780634f6ccce7146102b75780636352211e146102f45761012a565b806301ffc9a71461012f57806306fdde031461016c578063081812fc14610197578063095ea7b3146101d457806318160ddd146101fd575b600080fd5b34801561013b57600080fd5b506101566004803603810190610151919061251e565b610529565b6040516101639190612566565b60405180910390f35b34801561017857600080fd5b5061018161053b565b60405161018e919061261a565b60405180910390f35b3480156101a357600080fd5b506101be60048036038101906101b99190612672565b6105cd565b6040516101cb91906126e0565b60405180910390f35b3480156101e057600080fd5b506101fb60048036038101906101f69190612727565b610652565b005b34801561020957600080fd5b5061021261076a565b60405161021f9190612776565b60405180910390f35b34801561023457600080fd5b5061024f600480360381019061024a9190612791565b610777565b005b34801561025d57600080fd5b5061027860048036038101906102739190612727565b6107d7565b6040516102859190612776565b60405180910390f35b34801561029a57600080fd5b506102b560048036038101906102b09190612791565b61087c565b005b3480156102c357600080fd5b506102de60048036038101906102d99190612672565b61089c565b6040516102eb9190612776565b60405180910390f35b34801561030057600080fd5b5061031b60048036038101906103169190612672565b61090d565b60405161032891906126e0565b60405180910390f35b34801561033d57600080fd5b50610358600480360381019061035391906127e4565b6109bf565b6040516103659190612776565b60405180910390f35b34801561037a57600080fd5b50610383610a77565b005b34801561039157600080fd5b5061039a610aff565b6040516103a791906126e0565b60405180910390f35b3480156103bc57600080fd5b506103c5610b29565b6040516103d2919061261a565b60405180910390f35b3480156103e757600080fd5b5061040260048036038101906103fd919061283d565b610bbb565b005b34801561041057600080fd5b5061042b600480360381019061042691906129b2565b610bd1565b005b34801561043957600080fd5b50610454600480360381019061044f9190612672565b610c33565b604051610461919061261a565b60405180910390f35b34801561047657600080fd5b50610491600480360381019061048c9190612ad6565b610c45565b005b6104ad60048036038101906104a89190612b45565b610cda565b6040516104ba9190612776565b60405180910390f35b3480156104cf57600080fd5b506104ea60048036038101906104e59190612bb4565b610dd1565b6040516104f79190612566565b60405180910390f35b34801561050c57600080fd5b50610527600480360381019061052291906127e4565b610e65565b005b600061053482610f5d565b9050919050565b60606000805461054a90612c23565b80601f016020809104026020016040519081016040528092919081815260200182805461057690612c23565b80156105c35780601f10610598576101008083540402835291602001916105c3565b820191906000526020600020905b8154815290600101906020018083116105a657829003601f168201915b5050505050905090565b60006105d882610fd7565b610617576040517f08c379a000000000000000000000000000000000000000000000000000000000815260040161060e90612cc7565b60405180910390fd5b6004600083815260200190815260200160002060009054906101000a900473ffffffffffffffffffffffffffffffffffffffff169050919050565b600061065d8261090d565b90508073ffffffffffffffffffffffffffffffffffffffff168373ffffffffffffffffffffffffffffffffffffffff1614156106ce576040517f08c379a00000000000000000000000000000000000000000000000000000000081526004016106c590612d59565b60405180910390fd5b8073ffffffffffffffffffffffffffffffffffffffff166106ed611043565b73ffffffffffffffffffffffffffffffffffffffff16148061071c575061071b81610716611043565b610dd1565b5b61075b576040517f08c379a000000000000000000000000000000000000000000000000000000000815260040161075290612deb565b60405180910390fd5b610765838361104b565b505050565b6000600880549050905090565b610788610782611043565b82611104565b6107c7576040517f08c379a00000000000000000000000000000000000000000000000000000000081526004016107be90612e7d565b60405180910390fd5b6107d28383836111e2565b505050565b60006107e2836109bf565b8210610823576040517f08c379a000000000000000000000000000000000000000000000000000000000815260040161081a90612f0f565b60405180910390fd5b600660008473ffffffffffffffffffffffffffffffffffffffff1673ffffffffffffffffffffffffffffffffffffffff168152602001908152602001600020600083815260200190815260200160002054905092915050565b61089783838360405180602001604052806000815250610bd1565b505050565b60006108a661076a565b82106108e7576040517f08c379a00000000000000000000000000000000000000000000000000000000081526004016108de90612fa1565b60405180910390fd5b600882815481106108fb576108fa612fc1565b5b90600052602060002001549050919050565b6000806002600084815260200190815260200160002060009054906101000a900473ffffffffffffffffffffffffffffffffffffffff169050600073ffffffffffffffffffffffffffffffffffffffff168173ffffffffffffffffffffffffffffffffffffffff1614156109b6576040517f08c379a00000000000000000000000000000000000000000000000000000000081526004016109ad90613062565b60405180910390fd5b80915050919050565b60008073ffffffffffffffffffffffffffffffffffffffff168273ffffffffffffffffffffffffffffffffffffffff161415610a30576040517f08c379a0000000000000000000000000000000000000000000000000000000008152600401610a27906130f4565b60405180910390fd5b600360008373ffffffffffffffffffffffffffffffffffffffff1673ffffffffffffffffffffffffffffffffffffffff168152602001908152602001600020549050919050565b610a7f611043565b73ffffffffffffffffffffffffffffffffffffffff16610a9d610aff565b73ffffffffffffffffffffffffffffffffffffffff1614610af3576040517f08c379a0000000000000000000000000000000000000000000000000000000008152600401610aea90613160565b60405180910390fd5b610afd600061143e565b565b6000600b60009054906101000a900473ffffffffffffffffffffffffffffffffffffffff16905090565b606060018054610b3890612c23565b80601f0160208091040260200160405190810160405280929190818152602001828054610b6490612c23565b8015610bb15780601f10610b8657610100808354040283529160200191610bb1565b820191906000526020600020905b815481529060010190602001808311610b9457829003601f168201915b5050505050905090565b610bcd610bc6611043565b8383611504565b5050565b610be2610bdc611043565b83611104565b610c21576040517f08c379a0000000000000000000000000000000000000000000000000000000008152600401610c1890612e7d565b60405180910390fd5b610c2d84848484611671565b50505050565b6060610c3e826116cd565b9050919050565b610c4d611043565b73ffffffffffffffffffffffffffffffffffffffff16610c6b610aff565b73ffffffffffffffffffffffffffffffffffffffff1614610cc1576040517f08c379a0000000000000000000000000000000000000000000000000000000008152600401610cb890613160565b60405180910390fd5b610ccb838361181f565b610cd5828261183d565b505050565b60006103e88410610d20576040517f08c379a0000000000000000000000000000000000000000000000000000000008152600401610d17906131f2565b60405180910390fd5b610d2984610fd7565b15610d69576040517f08c379a0000000000000000000000000000000000000000000000000000000008152600401610d609061325e565b60405180910390fd5b66b1a2bc2ec50000341015610db3576040517f08c379a0000000000000000000000000000000000000000000000000000000008152600401610daa906132ca565b60405180910390fd5b610dbd83856118b1565b610dc7848361183d565b8390509392505050565b6000600560008473ffffffffffffffffffffffffffffffffffffffff1673ffffffffffffffffffffffffffffffffffffffff16815260200190815260200160002060008373ffffffffffffffffffffffffffffffffffffffff1673ffffffffffffffffffffffffffffffffffffffff16815260200190815260200160002060009054906101000a900460ff16905092915050565b610e6d611043565b73ffffffffffffffffffffffffffffffffffffffff16610e8b610aff565b73ffffffffffffffffffffffffffffffffffffffff1614610ee1576040517f08c379a0000000000000000000000000000000000000000000000000000000008152600401610ed890613160565b60405180910390fd5b600073ffffffffffffffffffffffffffffffffffffffff168173ffffffffffffffffffffffffffffffffffffffff161415610f51576040517f08c379a0000000000000000000000000000000000000000000000000000000008152600401610f489061335c565b60405180910390fd5b610f5a8161143e565b50565b60007f780e9d63000000000000000000000000000000000000000000000000000000007bffffffffffffffffffffffffffffffffffffffffffffffffffffffff1916827bffffffffffffffffffffffffffffffffffffffffffffffffffffffff19161480610fd05750610fcf82611a7f565b5b9050919050565b60008073ffffffffffffffffffffffffffffffffffffffff166002600084815260200190815260200160002060009054906101000a900473ffffffffffffffffffffffffffffffffffffffff1673ffffffffffffffffffffffffffffffffffffffff1614159050919050565b600033905090565b816004600083815260200190815260200160002060006101000a81548173ffffffffffffffffffffffffffffffffffffffff021916908373ffffffffffffffffffffffffffffffffffffffff160217905550808273ffffffffffffffffffffffffffffffffffffffff166110be8361090d565b73ffffffffffffffffffffffffffffffffffffffff167f8c5be1e5ebec7d5bd14f71427d1e84f3dd0314c0f7b2291e5b200ac8c7c3b92560405160405180910390a45050565b600061110f82610fd7565b61114e576040517f08c379a0000000000000000000000000000000000000000000000000000000008152600401611145906133ee565b60405180910390fd5b60006111598361090d565b90508073ffffffffffffffffffffffffffffffffffffffff168473ffffffffffffffffffffffffffffffffffffffff1614806111c857508373ffffffffffffffffffffffffffffffffffffffff166111b0846105cd565b73ffffffffffffffffffffffffffffffffffffffff16145b806111d957506111d88185610dd1565b5b91505092915050565b8273ffffffffffffffffffffffffffffffffffffffff166112028261090d565b73ffffffffffffffffffffffffffffffffffffffff1614611258576040517f08c379a000000000000000000000000000000000000000000000000000000000815260040161124f90613480565b60405180910390fd5b600073ffffffffffffffffffffffffffffffffffffffff168273ffffffffffffffffffffffffffffffffffffffff1614156112c8576040517f08c379a00000000000000000000000000000000000000000000000000000000081526004016112bf90613512565b60405180910390fd5b6112d3838383611b61565b6112de60008261104b565b6001600360008573ffffffffffffffffffffffffffffffffffffffff1673ffffffffffffffffffffffffffffffffffffffff168152602001908152602001600020600082825461132e9190613561565b925050819055506001600360008473ffffffffffffffffffffffffffffffffffffffff1673ffffffffffffffffffffffffffffffffffffffff16815260200190815260200160002060008282546113859190613595565b92505081905550816002600083815260200190815260200160002060006101000a81548173ffffffffffffffffffffffffffffffffffffffff021916908373ffffffffffffffffffffffffffffffffffffffff160217905550808273ffffffffffffffffffffffffffffffffffffffff168473ffffffffffffffffffffffffffffffffffffffff167fddf252ad1be2c89b69c2b068fc378daa952ba7f163c4a11628f55a4df523b3ef60405160405180910390a4505050565b6000600b60009054906101000a900473ffffffffffffffffffffffffffffffffffffffff16905081600b60006101000a81548173ffffffffffffffffffffffffffffffffffffffff021916908373ffffffffffffffffffffffffffffffffffffffff1602179055508173ffffffffffffffffffffffffffffffffffffffff168173ffffffffffffffffffffffffffffffffffffffff167f8be0079c531659141344cd1fd0a4f28419497f9722a3daafe3b4186f6b6457e060405160405180910390a35050565b8173ffffffffffffffffffffffffffffffffffffffff168373ffffffffffffffffffffffffffffffffffffffff161415611573576040517f08c379a000000000000000000000000000000000000000000000000000000000815260040161156a90613637565b60405180910390fd5b80600560008573ffffffffffffffffffffffffffffffffffffffff1673ffffffffffffffffffffffffffffffffffffffff16815260200190815260200160002060008473ffffffffffffffffffffffffffffffffffffffff1673ffffffffffffffffffffffffffffffffffffffff16815260200190815260200160002060006101000a81548160ff0219169083151502179055508173ffffffffffffffffffffffffffffffffffffffff168373ffffffffffffffffffffffffffffffffffffffff167f17307eab39ab6107e8899845ad3d59bd9653f200f220920489ca2b5937696c31836040516116649190612566565b60405180910390a3505050565b61167c8484846111e2565b61168884848484611b71565b6116c7576040517f08c379a00000000000000000000000000000000000000000000000000000000081526004016116be906136c9565b60405180910390fd5b50505050565b60606116d882610fd7565b611717576040517f08c379a000000000000000000000000000000000000000000000000000000000815260040161170e9061375b565b60405180910390fd5b6000600a6000848152602001908152602001600020805461173790612c23565b80601f016020809104026020016040519081016040528092919081815260200182805461176390612c23565b80156117b05780601f10611785576101008083540402835291602001916117b0565b820191906000526020600020905b81548152906001019060200180831161179357829003601f168201915b5050505050905060006117c1611cf9565b90506000815114156117d757819250505061181a565b60008251111561180c5780826040516020016117f49291906137b7565b6040516020818303038152906040529250505061181a565b61181584611d10565b925050505b919050565b611839828260405180602001604052806000815250611db7565b5050565b61184682610fd7565b611885576040517f08c379a000000000000000000000000000000000000000000000000000000000815260040161187c9061384d565b60405180910390fd5b80600a600084815260200190815260200160002090805190602001906118ac92919061240f565b505050565b600073ffffffffffffffffffffffffffffffffffffffff168273ffffffffffffffffffffffffffffffffffffffff161415611921576040517f08c379a0000000000000000000000000000000000000000000000000000000008152600401611918906138b9565b60405180910390fd5b61192a81610fd7565b1561196a576040517f08c379a000000000000000000000000000000000000000000000000000000000815260040161196190613925565b60405180910390fd5b61197660008383611b61565b6001600360008473ffffffffffffffffffffffffffffffffffffffff1673ffffffffffffffffffffffffffffffffffffffff16815260200190815260200160002060008282546119c69190613595565b92505081905550816002600083815260200190815260200160002060006101000a81548173ffffffffffffffffffffffffffffffffffffffff021916908373ffffffffffffffffffffffffffffffffffffffff160217905550808273ffffffffffffffffffffffffffffffffffffffff16600073ffffffffffffffffffffffffffffffffffffffff167fddf252ad1be2c89b69c2b068fc378daa952ba7f163c4a11628f55a4df523b3ef60405160405180910390a45050565b60007f80ac58cd000000000000000000000000000000000000000000000000000000007bffffffffffffffffffffffffffffffffffffffffffffffffffffffff1916827bffffffffffffffffffffffffffffffffffffffffffffffffffffffff19161480611b4a57507f5b5e139f000000000000000000000000000000000000000000000000000000007bffffffffffffffffffffffffffffffffffffffffffffffffffffffff1916827bffffffffffffffffffffffffffffffffffffffffffffffffffffffff1916145b80611b5a5750611b5982611e12565b5b9050919050565b611b6c838383611e7c565b505050565b6000611b928473ffffffffffffffffffffffffffffffffffffffff16611f90565b15611cec578373ffffffffffffffffffffffffffffffffffffffff1663150b7a02611bbb611043565b8786866040518563ffffffff1660e01b8152600401611bdd949392919061399a565b6020604051808303816000875af1925050508015611c1957506040513d601f19601f82011682018060405250810190611c1691906139fb565b60015b611c9c573d8060008114611c49576040519150601f19603f3d011682016040523d82523d6000602084013e611c4e565b606091505b50600081511415611c94576040517f08c379a0000000000000000000000000000000000000000000000000000000008152600401611c8b906136c9565b60405180910390fd5b805181602001fd5b63150b7a0260e01b7bffffffffffffffffffffffffffffffffffffffffffffffffffffffff1916817bffffffffffffffffffffffffffffffffffffffffffffffffffffffff191614915050611cf1565b600190505b949350505050565b606060405180602001604052806000815250905090565b6060611d1b82610fd7565b611d5a576040517f08c379a0000000000000000000000000000000000000000000000000000000008152600401611d5190613a9a565b60405180910390fd5b6000611d64611cf9565b90506000815111611d845760405180602001604052806000815250611daf565b80611d8e84611fa3565b604051602001611d9f9291906137b7565b6040516020818303038152906040525b915050919050565b611dc183836118b1565b611dce6000848484611b71565b611e0d576040517f08c379a0000000000000000000000000000000000000000000000000000000008152600401611e04906136c9565b60405180910390fd5b505050565b60007f01ffc9a7000000000000000000000000000000000000000000000000000000007bffffffffffffffffffffffffffffffffffffffffffffffffffffffff1916827bffffffffffffffffffffffffffffffffffffffffffffffffffffffff1916149050919050565b611e87838383612104565b600073ffffffffffffffffffffffffffffffffffffffff168373ffffffffffffffffffffffffffffffffffffffff161415611eca57611ec581612109565b611f09565b8173ffffffffffffffffffffffffffffffffffffffff168373ffffffffffffffffffffffffffffffffffffffff1614611f0857611f078382612152565b5b5b600073ffffffffffffffffffffffffffffffffffffffff168273ffffffffffffffffffffffffffffffffffffffff161415611f4c57611f47816122bf565b611f8b565b8273ffffffffffffffffffffffffffffffffffffffff168273ffffffffffffffffffffffffffffffffffffffff1614611f8a57611f898282612390565b5b5b505050565b600080823b905060008111915050919050565b60606000821415611feb576040518060400160405280600181526020017f300000000000000000000000000000000000000000000000000000000000000081525090506120ff565b600082905060005b6000821461201d57808061200690613aba565b915050600a826120169190613b32565b9150611ff3565b60008167ffffffffffffffff81111561203957612038612887565b5b6040519080825280601f01601f19166020018201604052801561206b5781602001600182028036833780820191505090505b5090505b600085146120f8576001826120849190613561565b9150600a856120939190613b63565b603061209f9190613595565b60f81b8183815181106120b5576120b4612fc1565b5b60200101907effffffffffffffffffffffffffffffffffffffffffffffffffffffffffffff1916908160001a905350600a856120f19190613b32565b945061206f565b8093505050505b919050565b505050565b6008805490506009600083815260200190815260200160002081905550600881908060018154018082558091505060019003906000526020600020016000909190919091505550565b6000600161215f846109bf565b6121699190613561565b905060006007600084815260200190815260200160002054905081811461224e576000600660008673ffffffffffffffffffffffffffffffffffffffff1673ffffffffffffffffffffffffffffffffffffffff168152602001908152602001600020600084815260200190815260200160002054905080600660008773ffffffffffffffffffffffffffffffffffffffff1673ffffffffffffffffffffffffffffffffffffffff168152602001908152602001600020600084815260200190815260200160002081905550816007600083815260200190815260200160002081905550505b6007600084815260200190815260200160002060009055600660008573ffffffffffffffffffffffffffffffffffffffff1673ffffffffffffffffffffffffffffffffffffffff16815260200190815260200160002060008381526020019081526020016000206000905550505050565b600060016008805490506122d39190613561565b905060006009600084815260200190815260200160002054905060006008838154811061230357612302612fc1565b5b90600052602060002001549050806008838154811061232557612324612fc1565b5b90600052602060002001819055508160096000838152602001908152602001600020819055506009600085815260200190815260200160002060009055600880548061237457612373613b94565b5b6001900381819060005260206000200160009055905550505050565b600061239b836109bf565b905081600660008573ffffffffffffffffffffffffffffffffffffffff1673ffffffffffffffffffffffffffffffffffffffff168152602001908152602001600020600083815260200190815260200160002081905550806007600084815260200190815260200160002081905550505050565b82805461241b90612c23565b90600052602060002090601f01602090048101928261243d5760008555612484565b82601f1061245657805160ff1916838001178555612484565b82800160010185558215612484579182015b82811115612483578251825591602001919060010190612468565b5b5090506124919190612495565b5090565b5b808211156124ae576000816000905550600101612496565b5090565b6000604051905090565b600080fd5b600080fd5b60007fffffffff0000000000000000000000000000000000000000000000000000000082169050919050565b6124fb816124c6565b811461250657600080fd5b50565b600081359050612518816124f2565b92915050565b600060208284031215612534576125336124bc565b5b600061254284828501612509565b91505092915050565b60008115159050919050565b6125608161254b565b82525050565b600060208201905061257b6000830184612557565b92915050565b600081519050919050565b600082825260208201905092915050565b60005b838110156125bb5780820151818401526020810190506125a0565b838111156125ca576000848401525b50505050565b6000601f19601f8301169050919050565b60006125ec82612581565b6125f6818561258c565b935061260681856020860161259d565b61260f816125d0565b840191505092915050565b6000602082019050818103600083015261263481846125e1565b905092915050565b6000819050919050565b61264f8161263c565b811461265a57600080fd5b50565b60008135905061266c81612646565b92915050565b600060208284031215612688576126876124bc565b5b60006126968482850161265d565b91505092915050565b600073ffffffffffffffffffffffffffffffffffffffff82169050919050565b60006126ca8261269f565b9050919050565b6126da816126bf565b82525050565b60006020820190506126f560008301846126d1565b92915050565b612704816126bf565b811461270f57600080fd5b50565b600081359050612721816126fb565b92915050565b6000806040838503121561273e5761273d6124bc565b5b600061274c85828601612712565b925050602061275d8582860161265d565b9150509250929050565b6127708161263c565b82525050565b600060208201905061278b6000830184612767565b92915050565b6000806000606084860312156127aa576127a96124bc565b5b60006127b886828701612712565b93505060206127c986828701612712565b92505060406127da8682870161265d565b9150509250925092565b6000602082840312156127fa576127f96124bc565b5b600061280884828501612712565b91505092915050565b61281a8161254b565b811461282557600080fd5b50565b60008135905061283781612811565b92915050565b60008060408385031215612854576128536124bc565b5b600061286285828601612712565b925050602061287385828601612828565b9150509250929050565b600080fd5b600080fd5b7f4e487b7100000000000000000000000000000000000000000000000000000000600052604160045260246000fd5b6128bf826125d0565b810181811067ffffffffffffffff821117156128de576128dd612887565b5b80604052505050565b60006128f16124b2565b90506128fd82826128b6565b919050565b600067ffffffffffffffff82111561291d5761291c612887565b5b612926826125d0565b9050602081019050919050565b82818337600083830152505050565b600061295561295084612902565b6128e7565b90508281526020810184848401111561297157612970612882565b5b61297c848285612933565b509392505050565b600082601f8301126129995761299861287d565b5b81356129a9848260208601612942565b91505092915050565b600080600080608085870312156129cc576129cb6124bc565b5b60006129da87828801612712565b94505060206129eb87828801612712565b93505060406129fc8782880161265d565b925050606085013567ffffffffffffffff811115612a1d57612a1c6124c1565b5b612a2987828801612984565b91505092959194509250565b600067ffffffffffffffff821115612a5057612a4f612887565b5b612a59826125d0565b9050602081019050919050565b6000612a79612a7484612a35565b6128e7565b905082815260208101848484011115612a9557612a94612882565b5b612aa0848285612933565b509392505050565b600082601f830112612abd57612abc61287d565b5b8135612acd848260208601612a66565b91505092915050565b600080600060608486031215612aef57612aee6124bc565b5b6000612afd86828701612712565b9350506020612b0e8682870161265d565b925050604084013567ffffffffffffffff811115612b2f57612b2e6124c1565b5b612b3b86828701612aa8565b9150509250925092565b600080600060608486031215612b5e57612b5d6124bc565b5b6000612b6c8682870161265d565b9350506020612b7d86828701612712565b925050604084013567ffffffffffffffff811115612b9e57612b9d6124c1565b5b612baa86828701612aa8565b9150509250925092565b60008060408385031215612bcb57612bca6124bc565b5b6000612bd985828601612712565b9250506020612bea85828601612712565b9150509250929050565b7f4e487b7100000000000000000000000000000000000000000000000000000000600052602260045260246000fd5b60006002820490506001821680612c3b57607f821691505b60208210811415612c4f57612c4e612bf4565b5b50919050565b7f4552433732313a20617070726f76656420717565727920666f72206e6f6e657860008201527f697374656e7420746f6b656e0000000000000000000000000000000000000000602082015250565b6000612cb1602c8361258c565b9150612cbc82612c55565b604082019050919050565b60006020820190508181036000830152612ce081612ca4565b9050919050565b7f4552433732313a20617070726f76616c20746f2063757272656e74206f776e6560008201527f7200000000000000000000000000000000000000000000000000000000000000602082015250565b6000612d4360218361258c565b9150612d4e82612ce7565b604082019050919050565b60006020820190508181036000830152612d7281612d36565b9050919050565b7f4552433732313a20617070726f76652063616c6c6572206973206e6f74206f7760008201527f6e6572206e6f7220617070726f76656420666f7220616c6c0000000000000000602082015250565b6000612dd560388361258c565b9150612de082612d79565b604082019050919050565b60006020820190508181036000830152612e0481612dc8565b9050919050565b7f4552433732313a207472616e736665722063616c6c6572206973206e6f74206f60008201527f776e6572206e6f7220617070726f766564000000000000000000000000000000602082015250565b6000612e6760318361258c565b9150612e7282612e0b565b604082019050919050565b60006020820190508181036000830152612e9681612e5a565b9050919050565b7f455243373231456e756d657261626c653a206f776e657220696e646578206f7560008201527f74206f6620626f756e6473000000000000000000000000000000000000000000602082015250565b6000612ef9602b8361258c565b9150612f0482612e9d565b604082019050919050565b60006020820190508181036000830152612f2881612eec565b9050919050565b7f455243373231456e756d657261626c653a20676c6f62616c20696e646578206f60008201527f7574206f6620626f756e64730000000000000000000000000000000000000000602082015250565b6000612f8b602c8361258c565b9150612f9682612f2f565b604082019050919050565b60006020820190508181036000830152612fba81612f7e565b9050919050565b7f4e487b7100000000000000000000000000000000000000000000000000000000600052603260045260246000fd5b7f4552433732313a206f776e657220717565727920666f72206e6f6e657869737460008201527f656e7420746f6b656e0000000000000000000000000000000000000000000000602082015250565b600061304c60298361258c565b915061305782612ff0565b604082019050919050565b6000602082019050818103600083015261307b8161303f565b9050919050565b7f4552433732313a2062616c616e636520717565727920666f7220746865207a6560008201527f726f206164647265737300000000000000000000000000000000000000000000602082015250565b60006130de602a8361258c565b91506130e982613082565b604082019050919050565b6000602082019050818103600083015261310d816130d1565b9050919050565b7f4f776e61626c653a2063616c6c6572206973206e6f7420746865206f776e6572600082015250565b600061314a60208361258c565b915061315582613114565b602082019050919050565b600060208201905081810360008301526131798161313d565b9050919050565b7f496e76616c696420746f6b656e2069642e2056616c69642072616e676520697360008201527f203020746f203939392e00000000000000000000000000000000000000000000602082015250565b60006131dc602a8361258c565b91506131e782613180565b604082019050919050565b6000602082019050818103600083015261320b816131cf565b9050919050565b7f546f6b656e2068617320616c7265616479206265656e206d696e7465642e0000600082015250565b6000613248601e8361258c565b915061325382613212565b602082019050919050565b600060208201905081810360008301526132778161323b565b9050919050565b7f4d696e696d756d20707269636520697320302e30352045544800000000000000600082015250565b60006132b460198361258c565b91506132bf8261327e565b602082019050919050565b600060208201905081810360008301526132e3816132a7565b9050919050565b7f4f776e61626c653a206e6577206f776e657220697320746865207a65726f206160008201527f6464726573730000000000000000000000000000000000000000000000000000602082015250565b600061334660268361258c565b9150613351826132ea565b604082019050919050565b6000602082019050818103600083015261337581613339565b9050919050565b7f4552433732313a206f70657261746f7220717565727920666f72206e6f6e657860008201527f697374656e7420746f6b656e0000000000000000000000000000000000000000602082015250565b60006133d8602c8361258c565b91506133e38261337c565b604082019050919050565b60006020820190508181036000830152613407816133cb565b9050919050565b7f4552433732313a207472616e73666572206f6620746f6b656e2074686174206960008201527f73206e6f74206f776e0000000000000000000000000000000000000000000000602082015250565b600061346a60298361258c565b91506134758261340e565b604082019050919050565b600060208201905081810360008301526134998161345d565b9050919050565b7f4552433732313a207472616e7366657220746f20746865207a65726f2061646460008201527f7265737300000000000000000000000000000000000000000000000000000000602082015250565b60006134fc60248361258c565b9150613507826134a0565b604082019050919050565b6000602082019050818103600083015261352b816134ef565b9050919050565b7f4e487b7100000000000000000000000000000000000000000000000000000000600052601160045260246000fd5b600061356c8261263c565b91506135778361263c565b92508282101561358a57613589613532565b5b828203905092915050565b60006135a08261263c565b91506135ab8361263c565b9250827fffffffffffffffffffffffffffffffffffffffffffffffffffffffffffffffff038211156135e0576135df613532565b5b828201905092915050565b7f4552433732313a20617070726f766520746f2063616c6c657200000000000000600082015250565b600061362160198361258c565b915061362c826135eb565b602082019050919050565b6000602082019050818103600083015261365081613614565b9050919050565b7f4552433732313a207472616e7366657220746f206e6f6e20455243373231526560008201527f63656976657220696d706c656d656e7465720000000000000000000000000000602082015250565b60006136b360328361258c565b91506136be82613657565b604082019050919050565b600060208201905081810360008301526136e2816136a6565b9050919050565b7f45524337323155524953746f726167653a2055524920717565727920666f722060008201527f6e6f6e6578697374656e7420746f6b656e000000000000000000000000000000602082015250565b600061374560318361258c565b9150613750826136e9565b604082019050919050565b6000602082019050818103600083015261377481613738565b9050919050565b600081905092915050565b600061379182612581565b61379b818561377b565b93506137ab81856020860161259d565b80840191505092915050565b60006137c38285613786565b91506137cf8284613786565b91508190509392505050565b7f45524337323155524953746f726167653a2055524920736574206f66206e6f6e60008201527f6578697374656e7420746f6b656e000000000000000000000000000000000000602082015250565b6000613837602e8361258c565b9150613842826137db565b604082019050919050565b600060208201905081810360008301526138668161382a565b9050919050565b7f4552433732313a206d696e7420746f20746865207a65726f2061646472657373600082015250565b60006138a360208361258c565b91506138ae8261386d565b602082019050919050565b600060208201905081810360008301526138d281613896565b9050919050565b7f4552433732313a20746f6b656e20616c7265616479206d696e74656400000000600082015250565b600061390f601c8361258c565b915061391a826138d9565b602082019050919050565b6000602082019050818103600083015261393e81613902565b9050919050565b600081519050919050565b600082825260208201905092915050565b600061396c82613945565b6139768185613950565b935061398681856020860161259d565b61398f816125d0565b840191505092915050565b60006080820190506139af60008301876126d1565b6139bc60208301866126d1565b6139c96040830185612767565b81810360608301526139db8184613961565b905095945050505050565b6000815190506139f5816124f2565b92915050565b600060208284031215613a1157613a106124bc565b5b6000613a1f848285016139e6565b91505092915050565b7f4552433732314d657461646174613a2055524920717565727920666f72206e6f60008201527f6e6578697374656e7420746f6b656e0000000000000000000000000000000000602082015250565b6000613a84602f8361258c565b9150613a8f82613a28565b604082019050919050565b60006020820190508181036000830152613ab381613a77565b9050919050565b6000613ac58261263c565b91507fffffffffffffffffffffffffffffffffffffffffffffffffffffffffffffffff821415613af857613af7613532565b5b600182019050919050565b7f4e487b7100000000000000000000000000000000000000000000000000000000600052601260045260246000fd5b6000613b3d8261263c565b9150613b488361263c565b925082613b5857613b57613b03565b5b828204905092915050565b6000613b6e8261263c565b9150613b798361263c565b925082613b8957613b88613b03565b5b828206905092915050565b7f4e487b7100000000000000000000000000000000000000000000000000000000600052603160045260246000fdfea2646970667358221220ac59af7344199838a0f93472912d6feba19905d18eeb6ce8fb428018a21e77c064736f6c634300080b0033",
  "immutableReferences": {},
  "source": "// SPDX-License-Identifier: MIT\npragma solidity ^0.8.2;\n\nimport \"@openzeppelin/contracts/token/ERC721/ERC721.sol\";\nimport \"@openzeppelin/contracts/token/ERC721/extensions/ERC721Enumerable.sol\";\nimport \"@openzeppelin/contracts/token/ERC721/extensions/ERC721URIStorage.sol\";\nimport \"@openzeppelin/contracts/access/Ownable.sol\";\n\ncontract GroovyDudesToken is ERC721, ERC721Enumerable, ERC721URIStorage, Ownable {\n  constructor() ERC721(\"GroovyDudesToken\", \"GVY\") {}\n\n  function mintByUser(\n    uint256 tokenId,\n    address recipient,\n    string memory metadataURI\n  ) public payable returns (uint256) {\n    require(tokenId < 1000, 'Invalid token id. Valid range is 0 to 999.');\n    require(!_exists(tokenId), 'Token has already been minted.');\n    require (msg.value >= 0.05 ether, 'Minimum price is 0.05 ETH');\n\n    _mint(recipient, tokenId);\n    _setTokenURI(tokenId, metadataURI);\n\n    return tokenId;\n  }\n\n  // Code below generated by OpenZeppelin wizard\n  // https://docs.openzeppelin.com/contracts/4.x/wizard\n\n  function safeMint(address to, uint256 tokenId, string memory uri)\n    public\n    onlyOwner\n  {\n    _safeMint(to, tokenId);\n    _setTokenURI(tokenId, uri);\n  }\n\n  // The following functions are overrides required by Solidity.\n\n  function _beforeTokenTransfer(address from, address to, uint256 tokenId)\n    internal\n    override(ERC721, ERC721Enumerable)\n  {\n    super._beforeTokenTransfer(from, to, tokenId);\n  }\n\n  function _burn(uint256 tokenId) internal override(ERC721, ERC721URIStorage) {\n    super._burn(tokenId);\n  }\n\n  function tokenURI(uint256 tokenId)\n    public\n    view\n    override(ERC721, ERC721URIStorage)\n    returns (string memory)\n  {\n    return super.tokenURI(tokenId);\n  }\n\n  function supportsInterface(bytes4 interfaceId)\n    public\n    view\n    override(ERC721, ERC721Enumerable)\n    returns (bool)\n  {\n    return super.supportsInterface(interfaceId);\n  }\n\n}\n",
  "sourcePath": "/Users/richardthompson/Documents/dev/nft-minter/contracts/GroovyDudesToken.sol",
  "compiler": {
    "name": "solc",
    "version": "0.8.11+commit.d7f03943.Emscripten.clang"
  },
  "schemaVersion": "3.4.4",
  "updatedAt": "2022-02-05T16:43:13.104Z",
  "networkType": "ethereum",
  "devdoc": {
    "kind": "dev",
    "methods": {
      "approve(address,uint256)": {
        "details": "See {IERC721-approve}."
      },
      "balanceOf(address)": {
        "details": "See {IERC721-balanceOf}."
      },
      "getApproved(uint256)": {
        "details": "See {IERC721-getApproved}."
      },
      "isApprovedForAll(address,address)": {
        "details": "See {IERC721-isApprovedForAll}."
      },
      "name()": {
        "details": "See {IERC721Metadata-name}."
      },
      "owner()": {
        "details": "Returns the address of the current owner."
      },
      "ownerOf(uint256)": {
        "details": "See {IERC721-ownerOf}."
      },
      "renounceOwnership()": {
        "details": "Leaves the contract without owner. It will not be possible to call `onlyOwner` functions anymore. Can only be called by the current owner. NOTE: Renouncing ownership will leave the contract without an owner, thereby removing any functionality that is only available to the owner."
      },
      "safeTransferFrom(address,address,uint256)": {
        "details": "See {IERC721-safeTransferFrom}."
      },
      "safeTransferFrom(address,address,uint256,bytes)": {
        "details": "See {IERC721-safeTransferFrom}."
      },
      "setApprovalForAll(address,bool)": {
        "details": "See {IERC721-setApprovalForAll}."
      },
      "symbol()": {
        "details": "See {IERC721Metadata-symbol}."
      },
      "tokenByIndex(uint256)": {
        "details": "See {IERC721Enumerable-tokenByIndex}."
      },
      "tokenOfOwnerByIndex(address,uint256)": {
        "details": "See {IERC721Enumerable-tokenOfOwnerByIndex}."
      },
      "totalSupply()": {
        "details": "See {IERC721Enumerable-totalSupply}."
      },
      "transferFrom(address,address,uint256)": {
        "details": "See {IERC721-transferFrom}."
      },
      "transferOwnership(address)": {
        "details": "Transfers ownership of the contract to a new account (`newOwner`). Can only be called by the current owner."
      }
    },
    "version": 1
  },
  "userdoc": {
    "kind": "user",
    "methods": {},
    "version": 1
  }
}