{
  "contractName": "NftItem",
  "abi": [
    {
      "inputs": [],
      "stateMutability": "nonpayable",
      "type": "constructor"
    },
    {
      "anonymous": false,
      "inputs": [
        {
          "indexed": true,
          "internalType": "address",
          "name": "owner",
          "type": "address"
        },
        {
          "indexed": true,
          "internalType": "address",
          "name": "approved",
          "type": "address"
        },
        {
          "indexed": true,
          "internalType": "uint256",
          "name": "tokenId",
          "type": "uint256"
        }
      ],
      "name": "Approval",
      "type": "event"
    },
    {
      "anonymous": false,
      "inputs": [
        {
          "indexed": true,
          "internalType": "address",
          "name": "owner",
          "type": "address"
        },
        {
          "indexed": true,
          "internalType": "address",
          "name": "operator",
          "type": "address"
        },
        {
          "indexed": false,
          "internalType": "bool",
          "name": "approved",
          "type": "bool"
        }
      ],
      "name": "ApprovalForAll",
      "type": "event"
    },
    {
      "anonymous": false,
      "inputs": [
        {
          "indexed": true,
          "internalType": "address",
          "name": "from",
          "type": "address"
        },
        {
          "indexed": true,
          "internalType": "address",
          "name": "to",
          "type": "address"
        },
        {
          "indexed": true,
          "internalType": "uint256",
          "name": "tokenId",
          "type": "uint256"
        }
      ],
      "name": "Transfer",
      "type": "event"
    },
    {
      "inputs": [
        {
          "internalType": "address",
          "name": "to",
          "type": "address"
        },
        {
          "internalType": "uint256",
          "name": "tokenId",
          "type": "uint256"
        }
      ],
      "name": "approve",
      "outputs": [],
      "stateMutability": "nonpayable",
      "type": "function"
    },
    {
      "inputs": [
        {
          "internalType": "address",
          "name": "owner",
          "type": "address"
        }
      ],
      "name": "balanceOf",
      "outputs": [
        {
          "internalType": "uint256",
          "name": "",
          "type": "uint256"
        }
      ],
      "stateMutability": "view",
      "type": "function",
      "constant": true
    },
    {
      "inputs": [
        {
          "internalType": "uint256",
          "name": "tokenId",
          "type": "uint256"
        }
      ],
      "name": "getApproved",
      "outputs": [
        {
          "internalType": "address",
          "name": "",
          "type": "address"
        }
      ],
      "stateMutability": "view",
      "type": "function",
      "constant": true
    },
    {
      "inputs": [
        {
          "internalType": "address",
          "name": "owner",
          "type": "address"
        },
        {
          "internalType": "address",
          "name": "operator",
          "type": "address"
        }
      ],
      "name": "isApprovedForAll",
      "outputs": [
        {
          "internalType": "bool",
          "name": "",
          "type": "bool"
        }
      ],
      "stateMutability": "view",
      "type": "function",
      "constant": true
    },
    {
      "inputs": [],
      "name": "name",
      "outputs": [
        {
          "internalType": "string",
          "name": "",
          "type": "string"
        }
      ],
      "stateMutability": "view",
      "type": "function",
      "constant": true
    },
    {
      "inputs": [
        {
          "internalType": "uint256",
          "name": "tokenId",
          "type": "uint256"
        }
      ],
      "name": "ownerOf",
      "outputs": [
        {
          "internalType": "address",
          "name": "",
          "type": "address"
        }
      ],
      "stateMutability": "view",
      "type": "function",
      "constant": true
    },
    {
      "inputs": [
        {
          "internalType": "address",
          "name": "from",
          "type": "address"
        },
        {
          "internalType": "address",
          "name": "to",
          "type": "address"
        },
        {
          "internalType": "uint256",
          "name": "tokenId",
          "type": "uint256"
        }
      ],
      "name": "safeTransferFrom",
      "outputs": [],
      "stateMutability": "nonpayable",
      "type": "function"
    },
    {
      "inputs": [
        {
          "internalType": "address",
          "name": "from",
          "type": "address"
        },
        {
          "internalType": "address",
          "name": "to",
          "type": "address"
        },
        {
          "internalType": "uint256",
          "name": "tokenId",
          "type": "uint256"
        },
        {
          "internalType": "bytes",
          "name": "_data",
          "type": "bytes"
        }
      ],
      "name": "safeTransferFrom",
      "outputs": [],
      "stateMutability": "nonpayable",
      "type": "function"
    },
    {
      "inputs": [
        {
          "internalType": "address",
          "name": "operator",
          "type": "address"
        },
        {
          "internalType": "bool",
          "name": "approved",
          "type": "bool"
        }
      ],
      "name": "setApprovalForAll",
      "outputs": [],
      "stateMutability": "nonpayable",
      "type": "function"
    },
    {
      "inputs": [
        {
          "internalType": "bytes4",
          "name": "interfaceId",
          "type": "bytes4"
        }
      ],
      "name": "supportsInterface",
      "outputs": [
        {
          "internalType": "bool",
          "name": "",
          "type": "bool"
        }
      ],
      "stateMutability": "view",
      "type": "function",
      "constant": true
    },
    {
      "inputs": [],
      "name": "symbol",
      "outputs": [
        {
          "internalType": "string",
          "name": "",
          "type": "string"
        }
      ],
      "stateMutability": "view",
      "type": "function",
      "constant": true
    },
    {
      "inputs": [
        {
          "internalType": "uint256",
          "name": "tokenId",
          "type": "uint256"
        }
      ],
      "name": "tokenURI",
      "outputs": [
        {
          "internalType": "string",
          "name": "",
          "type": "string"
        }
      ],
      "stateMutability": "view",
      "type": "function",
      "constant": true
    },
    {
      "inputs": [
        {
          "internalType": "address",
          "name": "from",
          "type": "address"
        },
        {
          "internalType": "address",
          "name": "to",
          "type": "address"
        },
        {
          "internalType": "uint256",
          "name": "tokenId",
          "type": "uint256"
        }
      ],
      "name": "transferFrom",
      "outputs": [],
      "stateMutability": "nonpayable",
      "type": "function"
    },
    {
      "inputs": [
        {
          "internalType": "address",
          "name": "creator",
          "type": "address"
        },
        {
          "internalType": "string",
          "name": "tokenURI",
          "type": "string"
        }
      ],
      "name": "createItem",
      "outputs": [
        {
          "internalType": "uint256",
          "name": "",
          "type": "uint256"
        }
      ],
      "stateMutability": "nonpayable",
      "type": "function"
    },
    {
      "inputs": [],
      "name": "readNfts",
      "outputs": [
        {
          "components": [
            {
              "internalType": "uint256",
              "name": "tokenId",
              "type": "uint256"
            },
            {
              "internalType": "address",
              "name": "creator",
              "type": "address"
            },
            {
              "internalType": "string",
              "name": "tokenURI",
              "type": "string"
            }
          ],
          "internalType": "struct NftItem.MintedNft[]",
          "name": "",
          "type": "tuple[]"
        }
      ],
      "stateMutability": "view",
      "type": "function",
      "constant": true
    }
  ],
  "bytecode": "0x60806040523480156200001157600080fd5b506040518060400160405280600781526020017f4e66744974656d000000000000000000000000000000000000000000000000008152506040518060400160405280600381526020017f4e46540000000000000000000000000000000000000000000000000000000000815250816000908051906020019062000096929190620000b8565b508060019080519060200190620000af929190620000b8565b505050620001cd565b828054620000c69062000197565b90600052602060002090601f016020900481019282620000ea576000855562000136565b82601f106200010557805160ff191683800117855562000136565b8280016001018555821562000136579182015b828111156200013557825182559160200191906001019062000118565b5b50905062000145919062000149565b5090565b5b80821115620001645760008160009055506001016200014a565b5090565b7f4e487b7100000000000000000000000000000000000000000000000000000000600052602260045260246000fd5b60006002820490506001821680620001b057607f821691505b60208210811415620001c757620001c662000168565b5b50919050565b612f7880620001dd6000396000f3fe608060405234801561001057600080fd5b50600436106100f55760003560e01c80636352211e11610097578063a22cb46511610066578063a22cb46514610298578063b88d4fde146102b4578063c87b56dd146102d0578063e985e9c514610300576100f5565b80636352211e146101fc57806370a082311461022c57806395d89b411461025c5780639f3099391461027a576100f5565b8063095ea7b3116100d3578063095ea7b31461017857806323b872dd1461019457806326fb76c2146101b057806342842e0e146101e0576100f5565b806301ffc9a7146100fa57806306fdde031461012a578063081812fc14610148575b600080fd5b610114600480360381019061010f9190611b3e565b610330565b6040516101219190611b86565b60405180910390f35b610132610412565b60405161013f9190611c3a565b60405180910390f35b610162600480360381019061015d9190611c92565b6104a4565b60405161016f9190611d00565b60405180910390f35b610192600480360381019061018d9190611d47565b610529565b005b6101ae60048036038101906101a99190611d87565b610641565b005b6101ca60048036038101906101c59190611f0f565b6106a1565b6040516101d79190611f7a565b60405180910390f35b6101fa60048036038101906101f59190611d87565b6107a5565b005b61021660048036038101906102119190611c92565b6107c5565b6040516102239190611d00565b60405180910390f35b61024660048036038101906102419190611f95565b610877565b6040516102539190611f7a565b60405180910390f35b61026461092f565b6040516102719190611c3a565b60405180910390f35b6102826109c1565b60405161028f919061213c565b60405180910390f35b6102b260048036038101906102ad919061218a565b610b12565b005b6102ce60048036038101906102c9919061226b565b610b28565b005b6102ea60048036038101906102e59190611c92565b610b8a565b6040516102f79190611c3a565b60405180910390f35b61031a600480360381019061031591906122ee565b610cdc565b6040516103279190611b86565b60405180910390f35b60007f80ac58cd000000000000000000000000000000000000000000000000000000007bffffffffffffffffffffffffffffffffffffffffffffffffffffffff1916827bffffffffffffffffffffffffffffffffffffffffffffffffffffffff191614806103fb57507f5b5e139f000000000000000000000000000000000000000000000000000000007bffffffffffffffffffffffffffffffffffffffffffffffffffffffff1916827bffffffffffffffffffffffffffffffffffffffffffffffffffffffff1916145b8061040b575061040a82610d70565b5b9050919050565b6060600080546104219061235d565b80601f016020809104026020016040519081016040528092919081815260200182805461044d9061235d565b801561049a5780601f1061046f5761010080835404028352916020019161049a565b820191906000526020600020905b81548152906001019060200180831161047d57829003601f168201915b5050505050905090565b60006104af82610dda565b6104ee576040517f08c379a00000000000000000000000000000000000000000000000000000000081526004016104e590612401565b60405180910390fd5b6004600083815260200190815260200160002060009054906101000a900473ffffffffffffffffffffffffffffffffffffffff169050919050565b6000610534826107c5565b90508073ffffffffffffffffffffffffffffffffffffffff168373ffffffffffffffffffffffffffffffffffffffff1614156105a5576040517f08c379a000000000000000000000000000000000000000000000000000000000815260040161059c90612493565b60405180910390fd5b8073ffffffffffffffffffffffffffffffffffffffff166105c4610e46565b73ffffffffffffffffffffffffffffffffffffffff1614806105f357506105f2816105ed610e46565b610cdc565b5b610632576040517f08c379a000000000000000000000000000000000000000000000000000000000815260040161062990612525565b60405180910390fd5b61063c8383610e4e565b505050565b61065261064c610e46565b82610f07565b610691576040517f08c379a0000000000000000000000000000000000000000000000000000000008152600401610688906125b7565b60405180910390fd5b61069c838383610fe5565b505050565b60006106ad6008611241565b60006106b96008611257565b90506106c58482611265565b6106cf8184611433565b600760405180606001604052808381526020018673ffffffffffffffffffffffffffffffffffffffff1681526020018581525090806001815401808255809150506001900390600052602060002090600302016000909190919091506000820151816000015560208201518160010160006101000a81548173ffffffffffffffffffffffffffffffffffffffff021916908373ffffffffffffffffffffffffffffffffffffffff1602179055506040820151816002019080519060200190610798929190611a2f565b5050508091505092915050565b6107c083838360405180602001604052806000815250610b28565b505050565b6000806002600084815260200190815260200160002060009054906101000a900473ffffffffffffffffffffffffffffffffffffffff169050600073ffffffffffffffffffffffffffffffffffffffff168173ffffffffffffffffffffffffffffffffffffffff16141561086e576040517f08c379a000000000000000000000000000000000000000000000000000000000815260040161086590612649565b60405180910390fd5b80915050919050565b60008073ffffffffffffffffffffffffffffffffffffffff168273ffffffffffffffffffffffffffffffffffffffff1614156108e8576040517f08c379a00000000000000000000000000000000000000000000000000000000081526004016108df906126db565b60405180910390fd5b600360008373ffffffffffffffffffffffffffffffffffffffff1673ffffffffffffffffffffffffffffffffffffffff168152602001908152602001600020549050919050565b60606001805461093e9061235d565b80601f016020809104026020016040519081016040528092919081815260200182805461096a9061235d565b80156109b75780601f1061098c576101008083540402835291602001916109b7565b820191906000526020600020905b81548152906001019060200180831161099a57829003601f168201915b5050505050905090565b60606007805480602002602001604051908101604052809291908181526020016000905b82821015610b095783829060005260206000209060030201604051806060016040529081600082015481526020016001820160009054906101000a900473ffffffffffffffffffffffffffffffffffffffff1673ffffffffffffffffffffffffffffffffffffffff1673ffffffffffffffffffffffffffffffffffffffff168152602001600282018054610a789061235d565b80601f0160208091040260200160405190810160405280929190818152602001828054610aa49061235d565b8015610af15780601f10610ac657610100808354040283529160200191610af1565b820191906000526020600020905b815481529060010190602001808311610ad457829003601f168201915b505050505081525050815260200190600101906109e5565b50505050905090565b610b24610b1d610e46565b83836114a7565b5050565b610b39610b33610e46565b83610f07565b610b78576040517f08c379a0000000000000000000000000000000000000000000000000000000008152600401610b6f906125b7565b60405180910390fd5b610b8484848484611614565b50505050565b6060610b9582610dda565b610bd4576040517f08c379a0000000000000000000000000000000000000000000000000000000008152600401610bcb9061276d565b60405180910390fd5b6000600660008481526020019081526020016000208054610bf49061235d565b80601f0160208091040260200160405190810160405280929190818152602001828054610c209061235d565b8015610c6d5780601f10610c4257610100808354040283529160200191610c6d565b820191906000526020600020905b815481529060010190602001808311610c5057829003601f168201915b505050505090506000610c7e611670565b9050600081511415610c94578192505050610cd7565b600082511115610cc9578082604051602001610cb19291906127c9565b60405160208183030381529060405292505050610cd7565b610cd284611687565b925050505b919050565b6000600560008473ffffffffffffffffffffffffffffffffffffffff1673ffffffffffffffffffffffffffffffffffffffff16815260200190815260200160002060008373ffffffffffffffffffffffffffffffffffffffff1673ffffffffffffffffffffffffffffffffffffffff16815260200190815260200160002060009054906101000a900460ff16905092915050565b60007f01ffc9a7000000000000000000000000000000000000000000000000000000007bffffffffffffffffffffffffffffffffffffffffffffffffffffffff1916827bffffffffffffffffffffffffffffffffffffffffffffffffffffffff1916149050919050565b60008073ffffffffffffffffffffffffffffffffffffffff166002600084815260200190815260200160002060009054906101000a900473ffffffffffffffffffffffffffffffffffffffff1673ffffffffffffffffffffffffffffffffffffffff1614159050919050565b600033905090565b816004600083815260200190815260200160002060006101000a81548173ffffffffffffffffffffffffffffffffffffffff021916908373ffffffffffffffffffffffffffffffffffffffff160217905550808273ffffffffffffffffffffffffffffffffffffffff16610ec1836107c5565b73ffffffffffffffffffffffffffffffffffffffff167f8c5be1e5ebec7d5bd14f71427d1e84f3dd0314c0f7b2291e5b200ac8c7c3b92560405160405180910390a45050565b6000610f1282610dda565b610f51576040517f08c379a0000000000000000000000000000000000000000000000000000000008152600401610f489061285f565b60405180910390fd5b6000610f5c836107c5565b90508073ffffffffffffffffffffffffffffffffffffffff168473ffffffffffffffffffffffffffffffffffffffff161480610fcb57508373ffffffffffffffffffffffffffffffffffffffff16610fb3846104a4565b73ffffffffffffffffffffffffffffffffffffffff16145b80610fdc5750610fdb8185610cdc565b5b91505092915050565b8273ffffffffffffffffffffffffffffffffffffffff16611005826107c5565b73ffffffffffffffffffffffffffffffffffffffff161461105b576040517f08c379a0000000000000000000000000000000000000000000000000000000008152600401611052906128f1565b60405180910390fd5b600073ffffffffffffffffffffffffffffffffffffffff168273ffffffffffffffffffffffffffffffffffffffff1614156110cb576040517f08c379a00000000000000000000000000000000000000000000000000000000081526004016110c290612983565b60405180910390fd5b6110d683838361172e565b6110e1600082610e4e565b6001600360008573ffffffffffffffffffffffffffffffffffffffff1673ffffffffffffffffffffffffffffffffffffffff168152602001908152602001600020600082825461113191906129d2565b925050819055506001600360008473ffffffffffffffffffffffffffffffffffffffff1673ffffffffffffffffffffffffffffffffffffffff16815260200190815260200160002060008282546111889190612a06565b92505081905550816002600083815260200190815260200160002060006101000a81548173ffffffffffffffffffffffffffffffffffffffff021916908373ffffffffffffffffffffffffffffffffffffffff160217905550808273ffffffffffffffffffffffffffffffffffffffff168473ffffffffffffffffffffffffffffffffffffffff167fddf252ad1be2c89b69c2b068fc378daa952ba7f163c4a11628f55a4df523b3ef60405160405180910390a4505050565b6001816000016000828254019250508190555050565b600081600001549050919050565b600073ffffffffffffffffffffffffffffffffffffffff168273ffffffffffffffffffffffffffffffffffffffff1614156112d5576040517f08c379a00000000000000000000000000000000000000000000000000000000081526004016112cc90612aa8565b60405180910390fd5b6112de81610dda565b1561131e576040517f08c379a000000000000000000000000000000000000000000000000000000000815260040161131590612b14565b60405180910390fd5b61132a6000838361172e565b6001600360008473ffffffffffffffffffffffffffffffffffffffff1673ffffffffffffffffffffffffffffffffffffffff168152602001908152602001600020600082825461137a9190612a06565b92505081905550816002600083815260200190815260200160002060006101000a81548173ffffffffffffffffffffffffffffffffffffffff021916908373ffffffffffffffffffffffffffffffffffffffff160217905550808273ffffffffffffffffffffffffffffffffffffffff16600073ffffffffffffffffffffffffffffffffffffffff167fddf252ad1be2c89b69c2b068fc378daa952ba7f163c4a11628f55a4df523b3ef60405160405180910390a45050565b61143c82610dda565b61147b576040517f08c379a000000000000000000000000000000000000000000000000000000000815260040161147290612ba6565b60405180910390fd5b806006600084815260200190815260200160002090805190602001906114a2929190611a2f565b505050565b8173ffffffffffffffffffffffffffffffffffffffff168373ffffffffffffffffffffffffffffffffffffffff161415611516576040517f08c379a000000000000000000000000000000000000000000000000000000000815260040161150d90612c12565b60405180910390fd5b80600560008573ffffffffffffffffffffffffffffffffffffffff1673ffffffffffffffffffffffffffffffffffffffff16815260200190815260200160002060008473ffffffffffffffffffffffffffffffffffffffff1673ffffffffffffffffffffffffffffffffffffffff16815260200190815260200160002060006101000a81548160ff0219169083151502179055508173ffffffffffffffffffffffffffffffffffffffff168373ffffffffffffffffffffffffffffffffffffffff167f17307eab39ab6107e8899845ad3d59bd9653f200f220920489ca2b5937696c31836040516116079190611b86565b60405180910390a3505050565b61161f848484610fe5565b61162b84848484611733565b61166a576040517f08c379a000000000000000000000000000000000000000000000000000000000815260040161166190612ca4565b60405180910390fd5b50505050565b606060405180602001604052806000815250905090565b606061169282610dda565b6116d1576040517f08c379a00000000000000000000000000000000000000000000000000000000081526004016116c890612d36565b60405180910390fd5b60006116db611670565b905060008151116116fb5760405180602001604052806000815250611726565b80611705846118bb565b6040516020016117169291906127c9565b6040516020818303038152906040525b915050919050565b505050565b60006117548473ffffffffffffffffffffffffffffffffffffffff16611a1c565b156118ae578373ffffffffffffffffffffffffffffffffffffffff1663150b7a0261177d610e46565b8786866040518563ffffffff1660e01b815260040161179f9493929190612dab565b6020604051808303816000875af19250505080156117db57506040513d601f19601f820116820180604052508101906117d89190612e0c565b60015b61185e573d806000811461180b576040519150601f19603f3d011682016040523d82523d6000602084013e611810565b606091505b50600081511415611856576040517f08c379a000000000000000000000000000000000000000000000000000000000815260040161184d90612ca4565b60405180910390fd5b805181602001fd5b63150b7a0260e01b7bffffffffffffffffffffffffffffffffffffffffffffffffffffffff1916817bffffffffffffffffffffffffffffffffffffffffffffffffffffffff1916149150506118b3565b600190505b949350505050565b60606000821415611903576040518060400160405280600181526020017f30000000000000000000000000000000000000000000000000000000000000008152509050611a17565b600082905060005b6000821461193557808061191e90612e39565b915050600a8261192e9190612eb1565b915061190b565b60008167ffffffffffffffff81111561195157611950611de4565b5b6040519080825280601f01601f1916602001820160405280156119835781602001600182028036833780820191505090505b5090505b60008514611a105760018261199c91906129d2565b9150600a856119ab9190612ee2565b60306119b79190612a06565b60f81b8183815181106119cd576119cc612f13565b5b60200101907effffffffffffffffffffffffffffffffffffffffffffffffffffffffffffff1916908160001a905350600a85611a099190612eb1565b9450611987565b8093505050505b919050565b600080823b905060008111915050919050565b828054611a3b9061235d565b90600052602060002090601f016020900481019282611a5d5760008555611aa4565b82601f10611a7657805160ff1916838001178555611aa4565b82800160010185558215611aa4579182015b82811115611aa3578251825591602001919060010190611a88565b5b509050611ab19190611ab5565b5090565b5b80821115611ace576000816000905550600101611ab6565b5090565b6000604051905090565b600080fd5b600080fd5b60007fffffffff0000000000000000000000000000000000000000000000000000000082169050919050565b611b1b81611ae6565b8114611b2657600080fd5b50565b600081359050611b3881611b12565b92915050565b600060208284031215611b5457611b53611adc565b5b6000611b6284828501611b29565b91505092915050565b60008115159050919050565b611b8081611b6b565b82525050565b6000602082019050611b9b6000830184611b77565b92915050565b600081519050919050565b600082825260208201905092915050565b60005b83811015611bdb578082015181840152602081019050611bc0565b83811115611bea576000848401525b50505050565b6000601f19601f8301169050919050565b6000611c0c82611ba1565b611c168185611bac565b9350611c26818560208601611bbd565b611c2f81611bf0565b840191505092915050565b60006020820190508181036000830152611c548184611c01565b905092915050565b6000819050919050565b611c6f81611c5c565b8114611c7a57600080fd5b50565b600081359050611c8c81611c66565b92915050565b600060208284031215611ca857611ca7611adc565b5b6000611cb684828501611c7d565b91505092915050565b600073ffffffffffffffffffffffffffffffffffffffff82169050919050565b6000611cea82611cbf565b9050919050565b611cfa81611cdf565b82525050565b6000602082019050611d156000830184611cf1565b92915050565b611d2481611cdf565b8114611d2f57600080fd5b50565b600081359050611d4181611d1b565b92915050565b60008060408385031215611d5e57611d5d611adc565b5b6000611d6c85828601611d32565b9250506020611d7d85828601611c7d565b9150509250929050565b600080600060608486031215611da057611d9f611adc565b5b6000611dae86828701611d32565b9350506020611dbf86828701611d32565b9250506040611dd086828701611c7d565b9150509250925092565b600080fd5b600080fd5b7f4e487b7100000000000000000000000000000000000000000000000000000000600052604160045260246000fd5b611e1c82611bf0565b810181811067ffffffffffffffff82111715611e3b57611e3a611de4565b5b80604052505050565b6000611e4e611ad2565b9050611e5a8282611e13565b919050565b600067ffffffffffffffff821115611e7a57611e79611de4565b5b611e8382611bf0565b9050602081019050919050565b82818337600083830152505050565b6000611eb2611ead84611e5f565b611e44565b905082815260208101848484011115611ece57611ecd611ddf565b5b611ed9848285611e90565b509392505050565b600082601f830112611ef657611ef5611dda565b5b8135611f06848260208601611e9f565b91505092915050565b60008060408385031215611f2657611f25611adc565b5b6000611f3485828601611d32565b925050602083013567ffffffffffffffff811115611f5557611f54611ae1565b5b611f6185828601611ee1565b9150509250929050565b611f7481611c5c565b82525050565b6000602082019050611f8f6000830184611f6b565b92915050565b600060208284031215611fab57611faa611adc565b5b6000611fb984828501611d32565b91505092915050565b600081519050919050565b600082825260208201905092915050565b6000819050602082019050919050565b611ff781611c5c565b82525050565b61200681611cdf565b82525050565b600082825260208201905092915050565b600061202882611ba1565b612032818561200c565b9350612042818560208601611bbd565b61204b81611bf0565b840191505092915050565b600060608301600083015161206e6000860182611fee565b5060208301516120816020860182611ffd565b5060408301518482036040860152612099828261201d565b9150508091505092915050565b60006120b28383612056565b905092915050565b6000602082019050919050565b60006120d282611fc2565b6120dc8185611fcd565b9350836020820285016120ee85611fde565b8060005b8581101561212a578484038952815161210b85826120a6565b9450612116836120ba565b925060208a019950506001810190506120f2565b50829750879550505050505092915050565b6000602082019050818103600083015261215681846120c7565b905092915050565b61216781611b6b565b811461217257600080fd5b50565b6000813590506121848161215e565b92915050565b600080604083850312156121a1576121a0611adc565b5b60006121af85828601611d32565b92505060206121c085828601612175565b9150509250929050565b600067ffffffffffffffff8211156121e5576121e4611de4565b5b6121ee82611bf0565b9050602081019050919050565b600061220e612209846121ca565b611e44565b90508281526020810184848401111561222a57612229611ddf565b5b612235848285611e90565b509392505050565b600082601f83011261225257612251611dda565b5b81356122628482602086016121fb565b91505092915050565b6000806000806080858703121561228557612284611adc565b5b600061229387828801611d32565b94505060206122a487828801611d32565b93505060406122b587828801611c7d565b925050606085013567ffffffffffffffff8111156122d6576122d5611ae1565b5b6122e28782880161223d565b91505092959194509250565b6000806040838503121561230557612304611adc565b5b600061231385828601611d32565b925050602061232485828601611d32565b9150509250929050565b7f4e487b7100000000000000000000000000000000000000000000000000000000600052602260045260246000fd5b6000600282049050600182168061237557607f821691505b602082108114156123895761238861232e565b5b50919050565b7f4552433732313a20617070726f76656420717565727920666f72206e6f6e657860008201527f697374656e7420746f6b656e0000000000000000000000000000000000000000602082015250565b60006123eb602c83611bac565b91506123f68261238f565b604082019050919050565b6000602082019050818103600083015261241a816123de565b9050919050565b7f4552433732313a20617070726f76616c20746f2063757272656e74206f776e6560008201527f7200000000000000000000000000000000000000000000000000000000000000602082015250565b600061247d602183611bac565b915061248882612421565b604082019050919050565b600060208201905081810360008301526124ac81612470565b9050919050565b7f4552433732313a20617070726f76652063616c6c6572206973206e6f74206f7760008201527f6e6572206e6f7220617070726f76656420666f7220616c6c0000000000000000602082015250565b600061250f603883611bac565b915061251a826124b3565b604082019050919050565b6000602082019050818103600083015261253e81612502565b9050919050565b7f4552433732313a207472616e736665722063616c6c6572206973206e6f74206f60008201527f776e6572206e6f7220617070726f766564000000000000000000000000000000602082015250565b60006125a1603183611bac565b91506125ac82612545565b604082019050919050565b600060208201905081810360008301526125d081612594565b9050919050565b7f4552433732313a206f776e657220717565727920666f72206e6f6e657869737460008201527f656e7420746f6b656e0000000000000000000000000000000000000000000000602082015250565b6000612633602983611bac565b915061263e826125d7565b604082019050919050565b6000602082019050818103600083015261266281612626565b9050919050565b7f4552433732313a2062616c616e636520717565727920666f7220746865207a6560008201527f726f206164647265737300000000000000000000000000000000000000000000602082015250565b60006126c5602a83611bac565b91506126d082612669565b604082019050919050565b600060208201905081810360008301526126f4816126b8565b9050919050565b7f45524337323155524953746f726167653a2055524920717565727920666f722060008201527f6e6f6e6578697374656e7420746f6b656e000000000000000000000000000000602082015250565b6000612757603183611bac565b9150612762826126fb565b604082019050919050565b600060208201905081810360008301526127868161274a565b9050919050565b600081905092915050565b60006127a382611ba1565b6127ad818561278d565b93506127bd818560208601611bbd565b80840191505092915050565b60006127d58285612798565b91506127e18284612798565b91508190509392505050565b7f4552433732313a206f70657261746f7220717565727920666f72206e6f6e657860008201527f697374656e7420746f6b656e0000000000000000000000000000000000000000602082015250565b6000612849602c83611bac565b9150612854826127ed565b604082019050919050565b600060208201905081810360008301526128788161283c565b9050919050565b7f4552433732313a207472616e73666572206f6620746f6b656e2074686174206960008201527f73206e6f74206f776e0000000000000000000000000000000000000000000000602082015250565b60006128db602983611bac565b91506128e68261287f565b604082019050919050565b6000602082019050818103600083015261290a816128ce565b9050919050565b7f4552433732313a207472616e7366657220746f20746865207a65726f2061646460008201527f7265737300000000000000000000000000000000000000000000000000000000602082015250565b600061296d602483611bac565b915061297882612911565b604082019050919050565b6000602082019050818103600083015261299c81612960565b9050919050565b7f4e487b7100000000000000000000000000000000000000000000000000000000600052601160045260246000fd5b60006129dd82611c5c565b91506129e883611c5c565b9250828210156129fb576129fa6129a3565b5b828203905092915050565b6000612a1182611c5c565b9150612a1c83611c5c565b9250827fffffffffffffffffffffffffffffffffffffffffffffffffffffffffffffffff03821115612a5157612a506129a3565b5b828201905092915050565b7f4552433732313a206d696e7420746f20746865207a65726f2061646472657373600082015250565b6000612a92602083611bac565b9150612a9d82612a5c565b602082019050919050565b60006020820190508181036000830152612ac181612a85565b9050919050565b7f4552433732313a20746f6b656e20616c7265616479206d696e74656400000000600082015250565b6000612afe601c83611bac565b9150612b0982612ac8565b602082019050919050565b60006020820190508181036000830152612b2d81612af1565b9050919050565b7f45524337323155524953746f726167653a2055524920736574206f66206e6f6e60008201527f6578697374656e7420746f6b656e000000000000000000000000000000000000602082015250565b6000612b90602e83611bac565b9150612b9b82612b34565b604082019050919050565b60006020820190508181036000830152612bbf81612b83565b9050919050565b7f4552433732313a20617070726f766520746f2063616c6c657200000000000000600082015250565b6000612bfc601983611bac565b9150612c0782612bc6565b602082019050919050565b60006020820190508181036000830152612c2b81612bef565b9050919050565b7f4552433732313a207472616e7366657220746f206e6f6e20455243373231526560008201527f63656976657220696d706c656d656e7465720000000000000000000000000000602082015250565b6000612c8e603283611bac565b9150612c9982612c32565b604082019050919050565b60006020820190508181036000830152612cbd81612c81565b9050919050565b7f4552433732314d657461646174613a2055524920717565727920666f72206e6f60008201527f6e6578697374656e7420746f6b656e0000000000000000000000000000000000602082015250565b6000612d20602f83611bac565b9150612d2b82612cc4565b604082019050919050565b60006020820190508181036000830152612d4f81612d13565b9050919050565b600081519050919050565b600082825260208201905092915050565b6000612d7d82612d56565b612d878185612d61565b9350612d97818560208601611bbd565b612da081611bf0565b840191505092915050565b6000608082019050612dc06000830187611cf1565b612dcd6020830186611cf1565b612dda6040830185611f6b565b8181036060830152612dec8184612d72565b905095945050505050565b600081519050612e0681611b12565b92915050565b600060208284031215612e2257612e21611adc565b5b6000612e3084828501612df7565b91505092915050565b6000612e4482611c5c565b91507fffffffffffffffffffffffffffffffffffffffffffffffffffffffffffffffff821415612e7757612e766129a3565b5b600182019050919050565b7f4e487b7100000000000000000000000000000000000000000000000000000000600052601260045260246000fd5b6000612ebc82611c5c565b9150612ec783611c5c565b925082612ed757612ed6612e82565b5b828204905092915050565b6000612eed82611c5c565b9150612ef883611c5c565b925082612f0857612f07612e82565b5b828206905092915050565b7f4e487b7100000000000000000000000000000000000000000000000000000000600052603260045260246000fdfea2646970667358221220b9531dc97b86f3fa033ef3566c7fb695bc79972e8760ec58bf9a05e00529e59064736f6c634300080b0033",
  "immutableReferences": {},
  "source": "// SPDX-License-Identifier: MIT\npragma solidity ^0.8.0;\n\nimport \"@openzeppelin/contracts/token/ERC721/ERC721.sol\";\nimport \"@openzeppelin/contracts/token/ERC721/extensions/ERC721URIStorage.sol\";\nimport \"@openzeppelin/contracts/utils/Counters.sol\";\n\ncontract NftItem is ERC721URIStorage {\n  using Counters for Counters.Counter;\n\n  struct MintedNft {\n    uint256 tokenId;\n    address creator;\n    string tokenURI;\n  }\n\n  MintedNft[] private mintedNfts;\n  Counters.Counter private _tokenIds;\n\n  constructor() ERC721(\"NftItem\", \"NFT\") {}\n\n  function createItem(address creator, string memory tokenURI) public returns (uint256) {\n    _tokenIds.increment();\n    uint256 newItemId = _tokenIds.current();\n    _mint(creator, newItemId);\n    _setTokenURI(newItemId, tokenURI);\n    mintedNfts.push(MintedNft({\n      tokenId: newItemId,\n      creator: creator,\n      tokenURI: tokenURI\n    }));\n    return newItemId;\n  }\n\n  function readNfts() public view returns (MintedNft[] memory) {\n    return mintedNfts;\n  }\n\n}\n",
  "sourcePath": "/Users/richardthompson/Documents/dev/nft-minter/contracts/NftItem.sol",
  "compiler": {
    "name": "solc",
    "version": "0.8.11+commit.d7f03943.Emscripten.clang"
  },
  "schemaVersion": "3.4.4",
  "updatedAt": "2022-02-12T15:07:28.575Z",
  "networkType": "ethereum",
  "devdoc": {
    "kind": "dev",
    "methods": {
      "approve(address,uint256)": {
        "details": "See {IERC721-approve}."
      },
      "balanceOf(address)": {
        "details": "See {IERC721-balanceOf}."
      },
      "getApproved(uint256)": {
        "details": "See {IERC721-getApproved}."
      },
      "isApprovedForAll(address,address)": {
        "details": "See {IERC721-isApprovedForAll}."
      },
      "name()": {
        "details": "See {IERC721Metadata-name}."
      },
      "ownerOf(uint256)": {
        "details": "See {IERC721-ownerOf}."
      },
      "safeTransferFrom(address,address,uint256)": {
        "details": "See {IERC721-safeTransferFrom}."
      },
      "safeTransferFrom(address,address,uint256,bytes)": {
        "details": "See {IERC721-safeTransferFrom}."
      },
      "setApprovalForAll(address,bool)": {
        "details": "See {IERC721-setApprovalForAll}."
      },
      "supportsInterface(bytes4)": {
        "details": "See {IERC165-supportsInterface}."
      },
      "symbol()": {
        "details": "See {IERC721Metadata-symbol}."
      },
      "tokenURI(uint256)": {
        "details": "See {IERC721Metadata-tokenURI}."
      },
      "transferFrom(address,address,uint256)": {
        "details": "See {IERC721-transferFrom}."
      }
    },
    "version": 1
  },
  "userdoc": {
    "kind": "user",
    "methods": {},
    "version": 1
  }
}